{
  "_format": "hh-sol-artifact-1",
  "contractName": "Mixtape",
  "sourceName": "contracts/Mixtape.sol",
  "abi": [
    {
      "inputs": [
        {
          "internalType": "bytes32",
          "name": "merkleRoot_",
          "type": "bytes32"
        },
        {
          "internalType": "string",
          "name": "baseURI_",
          "type": "string"
        },
        {
          "internalType": "address",
          "name": "_implementation",
          "type": "address"
        }
      ],
      "stateMutability": "nonpayable",
      "type": "constructor"
    },
    {
      "anonymous": false,
      "inputs": [
        {
          "indexed": true,
          "internalType": "address",
          "name": "owner",
          "type": "address"
        },
        {
          "indexed": true,
          "internalType": "address",
          "name": "approved",
          "type": "address"
        },
        {
          "indexed": true,
          "internalType": "uint256",
          "name": "tokenId",
          "type": "uint256"
        }
      ],
      "name": "Approval",
      "type": "event"
    },
    {
      "anonymous": false,
      "inputs": [
        {
          "indexed": true,
          "internalType": "address",
          "name": "owner",
          "type": "address"
        },
        {
          "indexed": true,
          "internalType": "address",
          "name": "operator",
          "type": "address"
        },
        {
          "indexed": false,
          "internalType": "bool",
          "name": "approved",
          "type": "bool"
        }
      ],
      "name": "ApprovalForAll",
      "type": "event"
    },
    {
      "anonymous": false,
      "inputs": [
        {
          "indexed": false,
          "internalType": "uint256",
          "name": "index",
          "type": "uint256"
        },
        {
          "indexed": false,
          "internalType": "uint8",
          "name": "capacity",
          "type": "uint8"
        },
        {
          "indexed": false,
          "internalType": "uint8",
          "name": "quality",
          "type": "uint8"
        },
        {
          "indexed": false,
          "internalType": "uint256",
          "name": "style",
          "type": "uint256"
        }
      ],
      "name": "Claimed",
      "type": "event"
    },
    {
      "anonymous": false,
      "inputs": [
        {
          "indexed": true,
          "internalType": "address",
          "name": "previousOwner",
          "type": "address"
        },
        {
          "indexed": true,
          "internalType": "address",
          "name": "newOwner",
          "type": "address"
        }
      ],
      "name": "OwnershipTransferred",
      "type": "event"
    },
    {
      "anonymous": false,
      "inputs": [
        {
          "indexed": true,
          "internalType": "address",
          "name": "from",
          "type": "address"
        },
        {
          "indexed": true,
          "internalType": "address",
          "name": "to",
          "type": "address"
        },
        {
          "indexed": true,
          "internalType": "uint256",
          "name": "tokenId",
          "type": "uint256"
        }
      ],
      "name": "Transfer",
      "type": "event"
    },
    {
      "inputs": [],
      "name": "CASSETTE_CREATION_LIMIT",
      "outputs": [
        {
          "internalType": "uint256",
          "name": "",
          "type": "uint256"
        }
      ],
      "stateMutability": "view",
      "type": "function"
    },
    {
      "inputs": [],
      "name": "allCassettesClaimed",
      "outputs": [
        {
          "internalType": "bool",
          "name": "",
          "type": "bool"
        }
      ],
      "stateMutability": "view",
      "type": "function"
    },
    {
      "inputs": [
        {
          "internalType": "address",
          "name": "to",
          "type": "address"
        },
        {
          "internalType": "uint256",
          "name": "tokenId",
          "type": "uint256"
        }
      ],
      "name": "approve",
      "outputs": [],
      "stateMutability": "nonpayable",
      "type": "function"
    },
    {
      "inputs": [
        {
          "internalType": "address",
          "name": "owner",
          "type": "address"
        }
      ],
      "name": "balanceOf",
      "outputs": [
        {
          "internalType": "uint256",
          "name": "",
          "type": "uint256"
        }
      ],
      "stateMutability": "view",
      "type": "function"
    },
    {
      "inputs": [],
      "name": "baseURI",
      "outputs": [
        {
          "internalType": "string",
          "name": "",
          "type": "string"
        }
      ],
      "stateMutability": "view",
      "type": "function"
    },
    {
      "inputs": [],
      "name": "cassettesCreatedCount",
      "outputs": [
        {
          "internalType": "uint256",
          "name": "",
          "type": "uint256"
        }
      ],
      "stateMutability": "view",
      "type": "function"
    },
    {
      "inputs": [
        {
          "internalType": "uint256",
          "name": "index",
          "type": "uint256"
        },
        {
          "internalType": "uint8",
          "name": "capacity",
          "type": "uint8"
        },
        {
          "internalType": "uint8",
          "name": "quality",
          "type": "uint8"
        },
        {
          "internalType": "uint256",
          "name": "style",
          "type": "uint256"
        },
        {
          "internalType": "bytes32[]",
          "name": "merkleProof",
          "type": "bytes32[]"
        },
        {
          "internalType": "string",
          "name": "tokenURI",
          "type": "string"
        }
      ],
      "name": "claim",
      "outputs": [],
      "stateMutability": "payable",
      "type": "function"
    },
    {
      "inputs": [
        {
          "internalType": "string",
          "name": "_name",
          "type": "string"
        },
        {
          "internalType": "string",
          "name": "_symbol",
          "type": "string"
        }
      ],
      "name": "createSubtapeFactory",
      "outputs": [
        {
          "internalType": "uint256",
          "name": "",
          "type": "uint256"
        }
      ],
      "stateMutability": "nonpayable",
      "type": "function"
    },
    {
      "inputs": [
        {
          "internalType": "uint256",
          "name": "mixtapeId",
          "type": "uint256"
        },
        {
          "internalType": "string",
          "name": "tokenURI",
          "type": "string"
        }
      ],
      "name": "editMixtape",
      "outputs": [],
      "stateMutability": "nonpayable",
      "type": "function"
    },
    {
      "inputs": [
        {
          "internalType": "uint256",
          "name": "tokenId",
          "type": "uint256"
        }
      ],
      "name": "getApproved",
      "outputs": [
        {
          "internalType": "address",
          "name": "",
          "type": "address"
        }
      ],
      "stateMutability": "view",
      "type": "function"
    },
    {
      "inputs": [
        {
          "internalType": "uint256",
          "name": "factoryId",
          "type": "uint256"
        }
      ],
      "name": "getFactoryAtId",
      "outputs": [
        {
          "internalType": "contract SubtapeFactory",
          "name": "",
          "type": "address"
        }
      ],
      "stateMutability": "view",
      "type": "function"
    },
    {
      "inputs": [],
      "name": "implementation",
      "outputs": [
        {
          "internalType": "address",
          "name": "",
          "type": "address"
        }
      ],
      "stateMutability": "view",
      "type": "function"
    },
    {
      "inputs": [
        {
          "internalType": "address",
          "name": "owner",
          "type": "address"
        },
        {
          "internalType": "address",
          "name": "operator",
          "type": "address"
        }
      ],
      "name": "isApprovedForAll",
      "outputs": [
        {
          "internalType": "bool",
          "name": "",
          "type": "bool"
        }
      ],
      "stateMutability": "view",
      "type": "function"
    },
    {
      "inputs": [
        {
          "internalType": "uint256",
          "name": "index",
          "type": "uint256"
        }
      ],
      "name": "isClaimed",
      "outputs": [
        {
          "internalType": "bool",
          "name": "",
          "type": "bool"
        }
      ],
      "stateMutability": "view",
      "type": "function"
    },
    {
      "inputs": [],
      "name": "merkleRoot",
      "outputs": [
        {
          "internalType": "bytes32",
          "name": "",
          "type": "bytes32"
        }
      ],
      "stateMutability": "view",
      "type": "function"
    },
    {
      "inputs": [
        {
          "internalType": "uint256",
          "name": "",
          "type": "uint256"
        }
      ],
      "name": "mixes",
      "outputs": [
        {
          "internalType": "uint8",
          "name": "capacity",
          "type": "uint8"
        },
        {
          "internalType": "uint8",
          "name": "quality",
          "type": "uint8"
        },
        {
          "internalType": "uint256",
          "name": "style",
          "type": "uint256"
        }
      ],
      "stateMutability": "view",
      "type": "function"
    },
    {
      "inputs": [],
      "name": "name",
      "outputs": [
        {
          "internalType": "string",
          "name": "",
          "type": "string"
        }
      ],
      "stateMutability": "view",
      "type": "function"
    },
    {
      "inputs": [],
      "name": "owner",
      "outputs": [
        {
          "internalType": "address",
          "name": "",
          "type": "address"
        }
      ],
      "stateMutability": "view",
      "type": "function"
    },
    {
      "inputs": [
        {
          "internalType": "uint256",
          "name": "tokenId",
          "type": "uint256"
        }
      ],
      "name": "ownerOf",
      "outputs": [
        {
          "internalType": "address",
          "name": "",
          "type": "address"
        }
      ],
      "stateMutability": "view",
      "type": "function"
    },
    {
      "inputs": [],
      "name": "renounceOwnership",
      "outputs": [],
      "stateMutability": "nonpayable",
      "type": "function"
    },
    {
      "inputs": [
        {
          "internalType": "address",
          "name": "from",
          "type": "address"
        },
        {
          "internalType": "address",
          "name": "to",
          "type": "address"
        },
        {
          "internalType": "uint256",
          "name": "tokenId",
          "type": "uint256"
        }
      ],
      "name": "safeTransferFrom",
      "outputs": [],
      "stateMutability": "nonpayable",
      "type": "function"
    },
    {
      "inputs": [
        {
          "internalType": "address",
          "name": "from",
          "type": "address"
        },
        {
          "internalType": "address",
          "name": "to",
          "type": "address"
        },
        {
          "internalType": "uint256",
          "name": "tokenId",
          "type": "uint256"
        },
        {
          "internalType": "bytes",
          "name": "_data",
          "type": "bytes"
        }
      ],
      "name": "safeTransferFrom",
      "outputs": [],
      "stateMutability": "nonpayable",
      "type": "function"
    },
    {
      "inputs": [
        {
          "internalType": "address",
          "name": "operator",
          "type": "address"
        },
        {
          "internalType": "bool",
          "name": "approved",
          "type": "bool"
        }
      ],
      "name": "setApprovalForAll",
      "outputs": [],
      "stateMutability": "nonpayable",
      "type": "function"
    },
    {
      "inputs": [
        {
          "internalType": "bytes4",
          "name": "interfaceId",
          "type": "bytes4"
        }
      ],
      "name": "supportsInterface",
      "outputs": [
        {
          "internalType": "bool",
          "name": "",
          "type": "bool"
        }
      ],
      "stateMutability": "view",
      "type": "function"
    },
    {
      "inputs": [],
      "name": "symbol",
      "outputs": [
        {
          "internalType": "string",
          "name": "",
          "type": "string"
        }
      ],
      "stateMutability": "view",
      "type": "function"
    },
    {
      "inputs": [
        {
          "internalType": "uint256",
          "name": "tokenId",
          "type": "uint256"
        }
      ],
      "name": "tokenURI",
      "outputs": [
        {
          "internalType": "string",
          "name": "",
          "type": "string"
        }
      ],
      "stateMutability": "view",
      "type": "function"
    },
    {
      "inputs": [
        {
          "internalType": "address",
          "name": "from",
          "type": "address"
        },
        {
          "internalType": "address",
          "name": "to",
          "type": "address"
        },
        {
          "internalType": "uint256",
          "name": "tokenId",
          "type": "uint256"
        }
      ],
      "name": "transferFrom",
      "outputs": [],
      "stateMutability": "nonpayable",
      "type": "function"
    },
    {
      "inputs": [
        {
          "internalType": "address",
          "name": "newOwner",
          "type": "address"
        }
      ],
      "name": "transferOwnership",
      "outputs": [],
      "stateMutability": "nonpayable",
      "type": "function"
    },
    {
      "inputs": [],
      "name": "withdraw",
      "outputs": [],
      "stateMutability": "nonpayable",
      "type": "function"
    }
  ],
  "bytecode": "0x60a06040526000600e60006101000a81548160ff0219169083151502179055503480156200002c57600080fd5b5060405162004c1e38038062004c1e8339818101604052810190620000529190620003a9565b806040518060400160405280600781526020017f4e465461706573000000000000000000000000000000000000000000000000008152506040518060400160405280600481526020017f54415045000000000000000000000000000000000000000000000000000000008152508160009080519060200190620000d79291906200024d565b508060019080519060200190620000f09291906200024d565b50505062000113620001076200017f60201b60201c565b6200018760201b60201c565b80600960006101000a81548173ffffffffffffffffffffffffffffffffffffffff021916908373ffffffffffffffffffffffffffffffffffffffff16021790555050826080818152505081600b9080519060200190620001759291906200024d565b505050506200061a565b600033905090565b6000600760009054906101000a900473ffffffffffffffffffffffffffffffffffffffff16905081600760006101000a81548173ffffffffffffffffffffffffffffffffffffffff021916908373ffffffffffffffffffffffffffffffffffffffff1602179055508173ffffffffffffffffffffffffffffffffffffffff168173ffffffffffffffffffffffffffffffffffffffff167f8be0079c531659141344cd1fd0a4f28419497f9722a3daafe3b4186f6b6457e060405160405180910390a35050565b8280546200025b90620004f7565b90600052602060002090601f0160209004810192826200027f5760008555620002cb565b82601f106200029a57805160ff1916838001178555620002cb565b82800160010185558215620002cb579182015b82811115620002ca578251825591602001919060010190620002ad565b5b509050620002da9190620002de565b5090565b5b80821115620002f9576000816000905550600101620002df565b5090565b6000620003146200030e846200044d565b62000424565b905082815260208101848484011115620003335762000332620005c6565b5b62000340848285620004c1565b509392505050565b6000815190506200035981620005e6565b92915050565b600081519050620003708162000600565b92915050565b600082601f8301126200038e576200038d620005c1565b5b8151620003a0848260208601620002fd565b91505092915050565b600080600060608486031215620003c557620003c4620005d0565b5b6000620003d5868287016200035f565b935050602084015167ffffffffffffffff811115620003f957620003f8620005cb565b5b620004078682870162000376565b92505060406200041a8682870162000348565b9150509250925092565b60006200043062000443565b90506200043e82826200052d565b919050565b6000604051905090565b600067ffffffffffffffff8211156200046b576200046a62000592565b5b6200047682620005d5565b9050602081019050919050565b60006200049082620004a1565b9050919050565b6000819050919050565b600073ffffffffffffffffffffffffffffffffffffffff82169050919050565b60005b83811015620004e1578082015181840152602081019050620004c4565b83811115620004f1576000848401525b50505050565b600060028204905060018216806200051057607f821691505b6020821081141562000527576200052662000563565b5b50919050565b6200053882620005d5565b810181811067ffffffffffffffff821117156200055a576200055962000592565b5b80604052505050565b7f4e487b7100000000000000000000000000000000000000000000000000000000600052602260045260246000fd5b7f4e487b7100000000000000000000000000000000000000000000000000000000600052604160045260246000fd5b600080fd5b600080fd5b600080fd5b600080fd5b6000601f19601f8301169050919050565b620005f18162000483565b8114620005fd57600080fd5b50565b6200060b8162000497565b81146200061757600080fd5b50565b6080516145e16200063d60003960008181610a9e0152610ce701526145e16000f3fe6080604052600436106101c25760003560e01c806370a08231116100f7578063a5bc2c9f11610095578063b88d4fde11610064578063b88d4fde1461064b578063c87b56dd14610674578063e985e9c5146106b1578063f2fde38b146106ee576101c2565b8063a5bc2c9f14610579578063a651958e146105a4578063a88de402146105cf578063b7dacf661461060c576101c2565b80638da5cb5b116100d15780638da5cb5b146104bd57806395d89b41146104e85780639e34070f14610513578063a22cb46514610550576101c2565b806370a082311461042c578063715018a614610469578063776e278a14610480576101c2565b80632eb4a7ab116101645780635c60da1b1161013e5780635c60da1b1461037d578063630d7a34146103a85780636352211e146103c45780636c0360eb14610401576101c2565b80632eb4a7ab146103125780633ccfd60b1461033d57806342842e0e14610354576101c2565b8063081812fc116101a0578063081812fc1461025a578063095ea7b31461029757806323b872dd146102c05780632cdae39b146102e9576101c2565b806301ffc9a7146101c7578063033263e51461020457806306fdde031461022f575b600080fd5b3480156101d357600080fd5b506101ee60048036038101906101e99190612cf6565b610717565b6040516101fb9190613566565b60405180910390f35b34801561021057600080fd5b506102196107f9565b60405161022691906138f9565b60405180910390f35b34801561023b57600080fd5b506102446107ff565b60405161025191906135b7565b60405180910390f35b34801561026657600080fd5b50610281600480360381019061027c9190612dc8565b610891565b60405161028e91906134ba565b60405180910390f35b3480156102a357600080fd5b506102be60048036038101906102b99190612cb6565b610916565b005b3480156102cc57600080fd5b506102e760048036038101906102e29190612ba0565b610a2e565b005b3480156102f557600080fd5b50610310600480360381019061030b9190612df5565b610a8e565b005b34801561031e57600080fd5b50610327610a9c565b6040516103349190613581565b60405180910390f35b34801561034957600080fd5b50610352610ac0565b005b34801561036057600080fd5b5061037b60048036038101906103769190612ba0565b610b4f565b005b34801561038957600080fd5b50610392610b6f565b60405161039f91906134ba565b60405180910390f35b6103c260048036038101906103bd9190612e51565b610b95565b005b3480156103d057600080fd5b506103eb60048036038101906103e69190612dc8565b610ed6565b6040516103f891906134ba565b60405180910390f35b34801561040d57600080fd5b50610416610f88565b60405161042391906135b7565b60405180910390f35b34801561043857600080fd5b50610453600480360381019061044e9190612b33565b611016565b60405161046091906138f9565b60405180910390f35b34801561047557600080fd5b5061047e6110ce565b005b34801561048c57600080fd5b506104a760048036038101906104a29190612d50565b611156565b6040516104b491906138f9565b60405180910390f35b3480156104c957600080fd5b506104d2611241565b6040516104df91906134ba565b60405180910390f35b3480156104f457600080fd5b506104fd61126b565b60405161050a91906135b7565b60405180910390f35b34801561051f57600080fd5b5061053a60048036038101906105359190612dc8565b6112fd565b6040516105479190613566565b60405180910390f35b34801561055c57600080fd5b5061057760048036038101906105729190612c76565b611353565b005b34801561058557600080fd5b5061058e6114d4565b60405161059b9190613566565b60405180910390f35b3480156105b057600080fd5b506105b96114e7565b6040516105c691906138f9565b60405180910390f35b3480156105db57600080fd5b506105f660048036038101906105f19190612dc8565b6114ed565b604051610603919061359c565b60405180910390f35b34801561061857600080fd5b50610633600480360381019061062e9190612dc8565b61154b565b60405161064293929190613959565b60405180910390f35b34801561065757600080fd5b50610672600480360381019061066d9190612bf3565b61159f565b005b34801561068057600080fd5b5061069b60048036038101906106969190612dc8565b611601565b6040516106a891906135b7565b60405180910390f35b3480156106bd57600080fd5b506106d860048036038101906106d39190612b60565b611753565b6040516106e59190613566565b60405180910390f35b3480156106fa57600080fd5b5061071560048036038101906107109190612b33565b6117e7565b005b60007f80ac58cd000000000000000000000000000000000000000000000000000000007bffffffffffffffffffffffffffffffffffffffffffffffffffffffff1916827bffffffffffffffffffffffffffffffffffffffffffffffffffffffff191614806107e257507f5b5e139f000000000000000000000000000000000000000000000000000000007bffffffffffffffffffffffffffffffffffffffffffffffffffffffff1916827bffffffffffffffffffffffffffffffffffffffffffffffffffffffff1916145b806107f257506107f1826118df565b5b9050919050565b6103e881565b60606000805461080e90613c88565b80601f016020809104026020016040519081016040528092919081815260200182805461083a90613c88565b80156108875780601f1061085c57610100808354040283529160200191610887565b820191906000526020600020905b81548152906001019060200180831161086a57829003601f168201915b5050505050905090565b600061089c82611949565b6108db576040517f08c379a00000000000000000000000000000000000000000000000000000000081526004016108d2906137d9565b60405180910390fd5b6004600083815260200190815260200160002060009054906101000a900473ffffffffffffffffffffffffffffffffffffffff169050919050565b600061092182610ed6565b90508073ffffffffffffffffffffffffffffffffffffffff168373ffffffffffffffffffffffffffffffffffffffff161415610992576040517f08c379a000000000000000000000000000000000000000000000000000000000815260040161098990613859565b60405180910390fd5b8073ffffffffffffffffffffffffffffffffffffffff166109b16119b5565b73ffffffffffffffffffffffffffffffffffffffff1614806109e057506109df816109da6119b5565b611753565b5b610a1f576040517f08c379a0000000000000000000000000000000000000000000000000000000008152600401610a1690613719565b60405180910390fd5b610a2983836119bd565b505050565b610a3f610a396119b5565b82611a76565b610a7e576040517f08c379a0000000000000000000000000000000000000000000000000000000008152600401610a7590613879565b60405180910390fd5b610a89838383611b54565b505050565b610a988282611db0565b5050565b7f000000000000000000000000000000000000000000000000000000000000000081565b610ac86119b5565b73ffffffffffffffffffffffffffffffffffffffff16610ae6611241565b73ffffffffffffffffffffffffffffffffffffffff1614610b3c576040517f08c379a0000000000000000000000000000000000000000000000000000000008152600401610b33906137f9565b60405180910390fd5b610b4d610b47611241565b47611e24565b565b610b6a8383836040518060200160405280600081525061159f565b505050565b600960009054906101000a900473ffffffffffffffffffffffffffffffffffffffff1681565b610b9e876112fd565b15610bde576040517f08c379a0000000000000000000000000000000000000000000000000000000008152600401610bd5906138d9565b60405180910390fd5b6103e8600c5410610c24576040517f08c379a0000000000000000000000000000000000000000000000000000000008152600401610c1b906138b9565b60405180910390fd5b67016345785d8a0000341015610c6f576040517f08c379a0000000000000000000000000000000000000000000000000000000008152600401610c66906136f9565b60405180910390fd5b600087878787604051602001610c88949392919061346c565b604051602081830303815290604052805190602001209050610d0c848480806020026020016040519081016040528093929190818152602001838360200280828437600081840152601f19601f820116905080830192505050505050507f000000000000000000000000000000000000000000000000000000000000000083611f18565b610d4b576040517f08c379a0000000000000000000000000000000000000000000000000000000008152600401610d4290613899565b60405180910390fd5b610d5488611fce565b600f60405180606001604052808960ff1681526020018860ff16815260200187815250908060018154018082558091505060019003906000526020600020906002020160009091909190915060008201518160000160006101000a81548160ff021916908360ff16021790555060208201518160000160016101000a81548160ff021916908360ff160217905550604082015181600101555050610df83389612028565b610e028883611db0565b600c6000815480929190610e1590613ceb565b9190505550610e8e6040518060400160405280600481526020017f64656d6f000000000000000000000000000000000000000000000000000000008152506040518060400160405280600181526020017f6400000000000000000000000000000000000000000000000000000000000000815250611156565b507f6c0aadbf90daad59a1e28294a18cdfe6096e2f2de2c1acd92d4fb4bb5ddbf29588888888604051610ec49493929190613914565b60405180910390a15050505050505050565b6000806002600084815260200190815260200160002060009054906101000a900473ffffffffffffffffffffffffffffffffffffffff169050600073ffffffffffffffffffffffffffffffffffffffff168173ffffffffffffffffffffffffffffffffffffffff161415610f7f576040517f08c379a0000000000000000000000000000000000000000000000000000000008152600401610f7690613759565b60405180910390fd5b80915050919050565b600b8054610f9590613c88565b80601f0160208091040260200160405190810160405280929190818152602001828054610fc190613c88565b801561100e5780601f10610fe35761010080835404028352916020019161100e565b820191906000526020600020905b815481529060010190602001808311610ff157829003601f168201915b505050505081565b60008073ffffffffffffffffffffffffffffffffffffffff168273ffffffffffffffffffffffffffffffffffffffff161415611087576040517f08c379a000000000000000000000000000000000000000000000000000000000815260040161107e90613739565b60405180910390fd5b600360008373ffffffffffffffffffffffffffffffffffffffff1673ffffffffffffffffffffffffffffffffffffffff168152602001908152602001600020549050919050565b6110d66119b5565b73ffffffffffffffffffffffffffffffffffffffff166110f4611241565b73ffffffffffffffffffffffffffffffffffffffff161461114a576040517f08c379a0000000000000000000000000000000000000000000000000000000008152600401611141906137f9565b60405180910390fd5b61115460006121f6565b565b60008061116360086122bc565b905060006111bb600960009054906101000a900473ffffffffffffffffffffffffffffffffffffffff168360405160200161119e9190613451565b6040516020818303038152906040526111b690613bbb565b6122ca565b90508073ffffffffffffffffffffffffffffffffffffffff1663906571473387876040518463ffffffff1660e01b81526004016111fa93929190613521565b600060405180830381600087803b15801561121457600080fd5b505af1158015611228573d6000803e3d6000fd5b5050505061123660086123a1565b819250505092915050565b6000600760009054906101000a900473ffffffffffffffffffffffffffffffffffffffff16905090565b60606001805461127a90613c88565b80601f01602080910402602001604051908101604052809291908181526020018280546112a690613c88565b80156112f35780601f106112c8576101008083540402835291602001916112f3565b820191906000526020600020905b8154815290600101906020018083116112d657829003601f168201915b5050505050905090565b6000806101008361130e9190613acb565b90506000610100846113209190613d5a565b90506000600d60008481526020019081526020016000205490506000826001901b90508081831614945050505050919050565b61135b6119b5565b73ffffffffffffffffffffffffffffffffffffffff168273ffffffffffffffffffffffffffffffffffffffff1614156113c9576040517f08c379a00000000000000000000000000000000000000000000000000000000081526004016113c090613659565b60405180910390fd5b80600560006113d66119b5565b73ffffffffffffffffffffffffffffffffffffffff1673ffffffffffffffffffffffffffffffffffffffff16815260200190815260200160002060008473ffffffffffffffffffffffffffffffffffffffff1673ffffffffffffffffffffffffffffffffffffffff16815260200190815260200160002060006101000a81548160ff0219169083151502179055508173ffffffffffffffffffffffffffffffffffffffff166114836119b5565b73ffffffffffffffffffffffffffffffffffffffff167f17307eab39ab6107e8899845ad3d59bd9653f200f220920489ca2b5937696c31836040516114c89190613566565b60405180910390a35050565b600e60009054906101000a900460ff1681565b600c5481565b6000611544600960009054906101000a900473ffffffffffffffffffffffffffffffffffffffff16836040516020016115269190613451565b60405160208183030381529060405261153e90613bbb565b306123b7565b9050919050565b600f818154811061155b57600080fd5b90600052602060002090600202016000915090508060000160009054906101000a900460ff16908060000160019054906101000a900460ff16908060010154905083565b6115b06115aa6119b5565b83611a76565b6115ef576040517f08c379a00000000000000000000000000000000000000000000000000000000081526004016115e690613879565b60405180910390fd5b6115fb84848484612437565b50505050565b606061160c82611949565b61164b576040517f08c379a0000000000000000000000000000000000000000000000000000000008152600401611642906137b9565b60405180910390fd5b600060066000848152602001908152602001600020805461166b90613c88565b80601f016020809104026020016040519081016040528092919081815260200182805461169790613c88565b80156116e45780601f106116b9576101008083540402835291602001916116e4565b820191906000526020600020905b8154815290600101906020018083116116c757829003601f168201915b5050505050905060006116f5612493565b905060008151141561170b57819250505061174e565b600082511115611740578082604051602001611728929190613418565b6040516020818303038152906040529250505061174e565b61174984612525565b925050505b919050565b6000600560008473ffffffffffffffffffffffffffffffffffffffff1673ffffffffffffffffffffffffffffffffffffffff16815260200190815260200160002060008373ffffffffffffffffffffffffffffffffffffffff1673ffffffffffffffffffffffffffffffffffffffff16815260200190815260200160002060009054906101000a900460ff16905092915050565b6117ef6119b5565b73ffffffffffffffffffffffffffffffffffffffff1661180d611241565b73ffffffffffffffffffffffffffffffffffffffff1614611863576040517f08c379a000000000000000000000000000000000000000000000000000000000815260040161185a906137f9565b60405180910390fd5b600073ffffffffffffffffffffffffffffffffffffffff168173ffffffffffffffffffffffffffffffffffffffff1614156118d3576040517f08c379a00000000000000000000000000000000000000000000000000000000081526004016118ca906135f9565b60405180910390fd5b6118dc816121f6565b50565b60007f01ffc9a7000000000000000000000000000000000000000000000000000000007bffffffffffffffffffffffffffffffffffffffffffffffffffffffff1916827bffffffffffffffffffffffffffffffffffffffffffffffffffffffff1916149050919050565b60008073ffffffffffffffffffffffffffffffffffffffff166002600084815260200190815260200160002060009054906101000a900473ffffffffffffffffffffffffffffffffffffffff1673ffffffffffffffffffffffffffffffffffffffff1614159050919050565b600033905090565b816004600083815260200190815260200160002060006101000a81548173ffffffffffffffffffffffffffffffffffffffff021916908373ffffffffffffffffffffffffffffffffffffffff160217905550808273ffffffffffffffffffffffffffffffffffffffff16611a3083610ed6565b73ffffffffffffffffffffffffffffffffffffffff167f8c5be1e5ebec7d5bd14f71427d1e84f3dd0314c0f7b2291e5b200ac8c7c3b92560405160405180910390a45050565b6000611a8182611949565b611ac0576040517f08c379a0000000000000000000000000000000000000000000000000000000008152600401611ab7906136d9565b60405180910390fd5b6000611acb83610ed6565b90508073ffffffffffffffffffffffffffffffffffffffff168473ffffffffffffffffffffffffffffffffffffffff161480611b3a57508373ffffffffffffffffffffffffffffffffffffffff16611b2284610891565b73ffffffffffffffffffffffffffffffffffffffff16145b80611b4b5750611b4a8185611753565b5b91505092915050565b8273ffffffffffffffffffffffffffffffffffffffff16611b7482610ed6565b73ffffffffffffffffffffffffffffffffffffffff1614611bca576040517f08c379a0000000000000000000000000000000000000000000000000000000008152600401611bc190613819565b60405180910390fd5b600073ffffffffffffffffffffffffffffffffffffffff168273ffffffffffffffffffffffffffffffffffffffff161415611c3a576040517f08c379a0000000000000000000000000000000000000000000000000000000008152600401611c3190613639565b60405180910390fd5b611c458383836125cc565b611c506000826119bd565b6001600360008573ffffffffffffffffffffffffffffffffffffffff1673ffffffffffffffffffffffffffffffffffffffff1681526020019081526020016000206000828254611ca09190613afc565b925050819055506001600360008473ffffffffffffffffffffffffffffffffffffffff1673ffffffffffffffffffffffffffffffffffffffff1681526020019081526020016000206000828254611cf79190613a75565b92505081905550816002600083815260200190815260200160002060006101000a81548173ffffffffffffffffffffffffffffffffffffffff021916908373ffffffffffffffffffffffffffffffffffffffff160217905550808273ffffffffffffffffffffffffffffffffffffffff168473ffffffffffffffffffffffffffffffffffffffff167fddf252ad1be2c89b69c2b068fc378daa952ba7f163c4a11628f55a4df523b3ef60405160405180910390a4505050565b611db982611949565b611df8576040517f08c379a0000000000000000000000000000000000000000000000000000000008152600401611def90613779565b60405180910390fd5b80600660008481526020019081526020016000209080519060200190611e1f9291906128dc565b505050565b80471015611e67576040517f08c379a0000000000000000000000000000000000000000000000000000000008152600401611e5e906136b9565b60405180910390fd5b60008273ffffffffffffffffffffffffffffffffffffffff1682604051611e8d9061343c565b60006040518083038185875af1925050503d8060008114611eca576040519150601f19603f3d011682016040523d82523d6000602084013e611ecf565b606091505b5050905080611f13576040517f08c379a0000000000000000000000000000000000000000000000000000000008152600401611f0a90613699565b60405180910390fd5b505050565b60008082905060005b8551811015611fc0576000868281518110611f3f57611f3e613e18565b5b60200260200101519050808311611f80578281604051602001611f639291906133ec565b604051602081830303815290604052805190602001209250611fac565b8083604051602001611f939291906133ec565b6040516020818303038152906040528051906020012092505b508080611fb890613ceb565b915050611f21565b508381149150509392505050565b600061010082611fde9190613acb565b9050600061010083611ff09190613d5a565b9050806001901b600d60008481526020019081526020016000205417600d600084815260200190815260200160002081905550505050565b600073ffffffffffffffffffffffffffffffffffffffff168273ffffffffffffffffffffffffffffffffffffffff161415612098576040517f08c379a000000000000000000000000000000000000000000000000000000000815260040161208f90613799565b60405180910390fd5b6120a181611949565b156120e1576040517f08c379a00000000000000000000000000000000000000000000000000000000081526004016120d890613619565b60405180910390fd5b6120ed600083836125cc565b6001600360008473ffffffffffffffffffffffffffffffffffffffff1673ffffffffffffffffffffffffffffffffffffffff168152602001908152602001600020600082825461213d9190613a75565b92505081905550816002600083815260200190815260200160002060006101000a81548173ffffffffffffffffffffffffffffffffffffffff021916908373ffffffffffffffffffffffffffffffffffffffff160217905550808273ffffffffffffffffffffffffffffffffffffffff16600073ffffffffffffffffffffffffffffffffffffffff167fddf252ad1be2c89b69c2b068fc378daa952ba7f163c4a11628f55a4df523b3ef60405160405180910390a45050565b6000600760009054906101000a900473ffffffffffffffffffffffffffffffffffffffff16905081600760006101000a81548173ffffffffffffffffffffffffffffffffffffffff021916908373ffffffffffffffffffffffffffffffffffffffff1602179055508173ffffffffffffffffffffffffffffffffffffffff168173ffffffffffffffffffffffffffffffffffffffff167f8be0079c531659141344cd1fd0a4f28419497f9722a3daafe3b4186f6b6457e060405160405180910390a35050565b600081600001549050919050565b60006040517f3d602d80600a3d3981f3363d3d373d3d3d363d7300000000000000000000000081528360601b60148201527f5af43d82803e903d91602b57fd5bf300000000000000000000000000000000006028820152826037826000f5915050600073ffffffffffffffffffffffffffffffffffffffff168173ffffffffffffffffffffffffffffffffffffffff16141561239b576040517f08c379a000000000000000000000000000000000000000000000000000000000815260040161239290613679565b60405180910390fd5b92915050565b6001816000016000828254019250508190555050565b60006040517f3d602d80600a3d3981f3363d3d373d3d3d363d7300000000000000000000000081528460601b60148201527f5af43d82803e903d91602b57fd5bf3ff0000000000000000000000000000000060288201528260601b603882015283604c82015260378120606c820152605560378201209150509392505050565b612442848484611b54565b61244e848484846125d1565b61248d576040517f08c379a0000000000000000000000000000000000000000000000000000000008152600401612484906135d9565b60405180910390fd5b50505050565b6060600b80546124a290613c88565b80601f01602080910402602001604051908101604052809291908181526020018280546124ce90613c88565b801561251b5780601f106124f05761010080835404028352916020019161251b565b820191906000526020600020905b8154815290600101906020018083116124fe57829003601f168201915b5050505050905090565b606061253082611949565b61256f576040517f08c379a000000000000000000000000000000000000000000000000000000000815260040161256690613839565b60405180910390fd5b6000612579612493565b9050600081511161259957604051806020016040528060008152506125c4565b806125a384612768565b6040516020016125b4929190613418565b6040516020818303038152906040525b915050919050565b505050565b60006125f28473ffffffffffffffffffffffffffffffffffffffff166128c9565b1561275b578373ffffffffffffffffffffffffffffffffffffffff1663150b7a0261261b6119b5565b8786866040518563ffffffff1660e01b815260040161263d94939291906134d5565b602060405180830381600087803b15801561265757600080fd5b505af192505050801561268857506040513d601f19601f820116820180604052508101906126859190612d23565b60015b61270b573d80600081146126b8576040519150601f19603f3d011682016040523d82523d6000602084013e6126bd565b606091505b50600081511415612703576040517f08c379a00000000000000000000000000000000000000000000000000000000081526004016126fa906135d9565b60405180910390fd5b805181602001fd5b63150b7a0260e01b7bffffffffffffffffffffffffffffffffffffffffffffffffffffffff1916817bffffffffffffffffffffffffffffffffffffffffffffffffffffffff191614915050612760565b600190505b949350505050565b606060008214156127b0576040518060400160405280600181526020017f300000000000000000000000000000000000000000000000000000000000000081525090506128c4565b600082905060005b600082146127e25780806127cb90613ceb565b915050600a826127db9190613acb565b91506127b8565b60008167ffffffffffffffff8111156127fe576127fd613e47565b5b6040519080825280601f01601f1916602001820160405280156128305781602001600182028036833780820191505090505b5090505b600085146128bd576001826128499190613afc565b9150600a856128589190613d5a565b60306128649190613a75565b60f81b81838151811061287a57612879613e18565b5b60200101907effffffffffffffffffffffffffffffffffffffffffffffffffffffffffffff1916908160001a905350600a856128b69190613acb565b9450612834565b8093505050505b919050565b600080823b905060008111915050919050565b8280546128e890613c88565b90600052602060002090601f01602090048101928261290a5760008555612951565b82601f1061292357805160ff1916838001178555612951565b82800160010185558215612951579182015b82811115612950578251825591602001919060010190612935565b5b50905061295e9190612962565b5090565b5b8082111561297b576000816000905550600101612963565b5090565b600061299261298d846139b5565b613990565b9050828152602081018484840111156129ae576129ad613e9a565b5b6129b9848285613c46565b509392505050565b60006129d46129cf846139e6565b613990565b9050828152602081018484840111156129f0576129ef613e9a565b5b6129fb848285613c46565b509392505050565b600081359050612a1281614538565b92915050565b60008083601f840112612a2e57612a2d613e90565b5b8235905067ffffffffffffffff811115612a4b57612a4a613e8b565b5b602083019150836020820283011115612a6757612a66613e95565b5b9250929050565b600081359050612a7d8161454f565b92915050565b600081359050612a9281614566565b92915050565b600081519050612aa781614566565b92915050565b600082601f830112612ac257612ac1613e90565b5b8135612ad284826020860161297f565b91505092915050565b600082601f830112612af057612aef613e90565b5b8135612b008482602086016129c1565b91505092915050565b600081359050612b188161457d565b92915050565b600081359050612b2d81614594565b92915050565b600060208284031215612b4957612b48613ea4565b5b6000612b5784828501612a03565b91505092915050565b60008060408385031215612b7757612b76613ea4565b5b6000612b8585828601612a03565b9250506020612b9685828601612a03565b9150509250929050565b600080600060608486031215612bb957612bb8613ea4565b5b6000612bc786828701612a03565b9350506020612bd886828701612a03565b9250506040612be986828701612b09565b9150509250925092565b60008060008060808587031215612c0d57612c0c613ea4565b5b6000612c1b87828801612a03565b9450506020612c2c87828801612a03565b9350506040612c3d87828801612b09565b925050606085013567ffffffffffffffff811115612c5e57612c5d613e9f565b5b612c6a87828801612aad565b91505092959194509250565b60008060408385031215612c8d57612c8c613ea4565b5b6000612c9b85828601612a03565b9250506020612cac85828601612a6e565b9150509250929050565b60008060408385031215612ccd57612ccc613ea4565b5b6000612cdb85828601612a03565b9250506020612cec85828601612b09565b9150509250929050565b600060208284031215612d0c57612d0b613ea4565b5b6000612d1a84828501612a83565b91505092915050565b600060208284031215612d3957612d38613ea4565b5b6000612d4784828501612a98565b91505092915050565b60008060408385031215612d6757612d66613ea4565b5b600083013567ffffffffffffffff811115612d8557612d84613e9f565b5b612d9185828601612adb565b925050602083013567ffffffffffffffff811115612db257612db1613e9f565b5b612dbe85828601612adb565b9150509250929050565b600060208284031215612dde57612ddd613ea4565b5b6000612dec84828501612b09565b91505092915050565b60008060408385031215612e0c57612e0b613ea4565b5b6000612e1a85828601612b09565b925050602083013567ffffffffffffffff811115612e3b57612e3a613e9f565b5b612e4785828601612adb565b9150509250929050565b600080600080600080600060c0888a031215612e7057612e6f613ea4565b5b6000612e7e8a828b01612b09565b9750506020612e8f8a828b01612b1e565b9650506040612ea08a828b01612b1e565b9550506060612eb18a828b01612b09565b945050608088013567ffffffffffffffff811115612ed257612ed1613e9f565b5b612ede8a828b01612a18565b935093505060a088013567ffffffffffffffff811115612f0157612f00613e9f565b5b612f0d8a828b01612adb565b91505092959891949750929550565b612f2581613b30565b82525050565b612f3481613b42565b82525050565b612f4381613b4e565b82525050565b612f5a612f5582613b4e565b613d34565b82525050565b6000612f6b82613a27565b612f758185613a3d565b9350612f85818560208601613c55565b612f8e81613ea9565b840191505092915050565b612fa281613c22565b82525050565b6000612fb382613a32565b612fbd8185613a59565b9350612fcd818560208601613c55565b612fd681613ea9565b840191505092915050565b6000612fec82613a32565b612ff68185613a6a565b9350613006818560208601613c55565b80840191505092915050565b600061301f603283613a59565b915061302a82613ed4565b604082019050919050565b6000613042602683613a59565b915061304d82613f23565b604082019050919050565b6000613065601c83613a59565b915061307082613f72565b602082019050919050565b6000613088602483613a59565b915061309382613f9b565b604082019050919050565b60006130ab601983613a59565b91506130b682613fea565b602082019050919050565b60006130ce601783613a59565b91506130d982614013565b602082019050919050565b60006130f1603a83613a59565b91506130fc8261403c565b604082019050919050565b6000613114601d83613a59565b915061311f8261408b565b602082019050919050565b6000613137602c83613a59565b9150613142826140b4565b604082019050919050565b600061315a602183613a59565b915061316582614103565b604082019050919050565b600061317d603883613a59565b915061318882614152565b604082019050919050565b60006131a0602a83613a59565b91506131ab826141a1565b604082019050919050565b60006131c3602983613a59565b91506131ce826141f0565b604082019050919050565b60006131e6602e83613a59565b91506131f18261423f565b604082019050919050565b6000613209602083613a59565b91506132148261428e565b602082019050919050565b600061322c603183613a59565b9150613237826142b7565b604082019050919050565b600061324f602c83613a59565b915061325a82614306565b604082019050919050565b6000613272602083613a59565b915061327d82614355565b602082019050919050565b6000613295602983613a59565b91506132a08261437e565b604082019050919050565b60006132b8602f83613a59565b91506132c3826143cd565b604082019050919050565b60006132db602183613a59565b91506132e68261441c565b604082019050919050565b60006132fe600083613a4e565b91506133098261446b565b600082019050919050565b6000613321603183613a59565b915061332c8261446e565b604082019050919050565b6000613344600e83613a59565b915061334f826144bd565b602082019050919050565b6000613367601e83613a59565b9150613372826144e6565b602082019050919050565b600061338a601583613a59565b91506133958261450f565b602082019050919050565b6133a981613ba4565b82525050565b6133c06133bb82613ba4565b613d3e565b82525050565b6133cf81613bae565b82525050565b6133e66133e182613bae565b613d48565b82525050565b60006133f88285612f49565b6020820191506134088284612f49565b6020820191508190509392505050565b60006134248285612fe1565b91506134308284612fe1565b91508190509392505050565b6000613447826132f1565b9150819050919050565b600061345d82846133af565b60208201915081905092915050565b600061347882876133af565b60208201915061348882866133d5565b60018201915061349882856133d5565b6001820191506134a882846133af565b60208201915081905095945050505050565b60006020820190506134cf6000830184612f1c565b92915050565b60006080820190506134ea6000830187612f1c565b6134f76020830186612f1c565b61350460408301856133a0565b81810360608301526135168184612f60565b905095945050505050565b60006060820190506135366000830186612f1c565b81810360208301526135488185612fa8565b9050818103604083015261355c8184612fa8565b9050949350505050565b600060208201905061357b6000830184612f2b565b92915050565b60006020820190506135966000830184612f3a565b92915050565b60006020820190506135b16000830184612f99565b92915050565b600060208201905081810360008301526135d18184612fa8565b905092915050565b600060208201905081810360008301526135f281613012565b9050919050565b6000602082019050818103600083015261361281613035565b9050919050565b6000602082019050818103600083015261363281613058565b9050919050565b600060208201905081810360008301526136528161307b565b9050919050565b600060208201905081810360008301526136728161309e565b9050919050565b60006020820190508181036000830152613692816130c1565b9050919050565b600060208201905081810360008301526136b2816130e4565b9050919050565b600060208201905081810360008301526136d281613107565b9050919050565b600060208201905081810360008301526136f28161312a565b9050919050565b600060208201905081810360008301526137128161314d565b9050919050565b6000602082019050818103600083015261373281613170565b9050919050565b6000602082019050818103600083015261375281613193565b9050919050565b60006020820190508181036000830152613772816131b6565b9050919050565b60006020820190508181036000830152613792816131d9565b9050919050565b600060208201905081810360008301526137b2816131fc565b9050919050565b600060208201905081810360008301526137d28161321f565b9050919050565b600060208201905081810360008301526137f281613242565b9050919050565b6000602082019050818103600083015261381281613265565b9050919050565b6000602082019050818103600083015261383281613288565b9050919050565b60006020820190508181036000830152613852816132ab565b9050919050565b60006020820190508181036000830152613872816132ce565b9050919050565b6000602082019050818103600083015261389281613314565b9050919050565b600060208201905081810360008301526138b281613337565b9050919050565b600060208201905081810360008301526138d28161335a565b9050919050565b600060208201905081810360008301526138f28161337d565b9050919050565b600060208201905061390e60008301846133a0565b92915050565b600060808201905061392960008301876133a0565b61393660208301866133c6565b61394360408301856133c6565b61395060608301846133a0565b95945050505050565b600060608201905061396e60008301866133c6565b61397b60208301856133c6565b61398860408301846133a0565b949350505050565b600061399a6139ab565b90506139a68282613cba565b919050565b6000604051905090565b600067ffffffffffffffff8211156139d0576139cf613e47565b5b6139d982613ea9565b9050602081019050919050565b600067ffffffffffffffff821115613a0157613a00613e47565b5b613a0a82613ea9565b9050602081019050919050565b6000819050602082019050919050565b600081519050919050565b600081519050919050565b600082825260208201905092915050565b600081905092915050565b600082825260208201905092915050565b600081905092915050565b6000613a8082613ba4565b9150613a8b83613ba4565b9250827fffffffffffffffffffffffffffffffffffffffffffffffffffffffffffffffff03821115613ac057613abf613d8b565b5b828201905092915050565b6000613ad682613ba4565b9150613ae183613ba4565b925082613af157613af0613dba565b5b828204905092915050565b6000613b0782613ba4565b9150613b1283613ba4565b925082821015613b2557613b24613d8b565b5b828203905092915050565b6000613b3b82613b84565b9050919050565b60008115159050919050565b6000819050919050565b60007fffffffff0000000000000000000000000000000000000000000000000000000082169050919050565b600073ffffffffffffffffffffffffffffffffffffffff82169050919050565b6000819050919050565b600060ff82169050919050565b6000613bc682613a27565b82613bd084613a17565b9050613bdb81613e76565b92506020821015613c1b57613c167fffffffffffffffffffffffffffffffffffffffffffffffffffffffffffffffff83602003600802613ec7565b831692505b5050919050565b6000613c2d82613c34565b9050919050565b6000613c3f82613b84565b9050919050565b82818337600083830152505050565b60005b83811015613c73578082015181840152602081019050613c58565b83811115613c82576000848401525b50505050565b60006002820490506001821680613ca057607f821691505b60208210811415613cb457613cb3613de9565b5b50919050565b613cc382613ea9565b810181811067ffffffffffffffff82111715613ce257613ce1613e47565b5b80604052505050565b6000613cf682613ba4565b91507fffffffffffffffffffffffffffffffffffffffffffffffffffffffffffffffff821415613d2957613d28613d8b565b5b600182019050919050565b6000819050919050565b6000819050919050565b6000613d5382613eba565b9050919050565b6000613d6582613ba4565b9150613d7083613ba4565b925082613d8057613d7f613dba565b5b828206905092915050565b7f4e487b7100000000000000000000000000000000000000000000000000000000600052601160045260246000fd5b7f4e487b7100000000000000000000000000000000000000000000000000000000600052601260045260246000fd5b7f4e487b7100000000000000000000000000000000000000000000000000000000600052602260045260246000fd5b7f4e487b7100000000000000000000000000000000000000000000000000000000600052603260045260246000fd5b7f4e487b7100000000000000000000000000000000000000000000000000000000600052604160045260246000fd5b6000613e828251613b4e565b80915050919050565b600080fd5b600080fd5b600080fd5b600080fd5b600080fd5b600080fd5b6000601f19601f8301169050919050565b60008160f81b9050919050565b600082821b905092915050565b7f4552433732313a207472616e7366657220746f206e6f6e20455243373231526560008201527f63656976657220696d706c656d656e7465720000000000000000000000000000602082015250565b7f4f776e61626c653a206e6577206f776e657220697320746865207a65726f206160008201527f6464726573730000000000000000000000000000000000000000000000000000602082015250565b7f4552433732313a20746f6b656e20616c7265616479206d696e74656400000000600082015250565b7f4552433732313a207472616e7366657220746f20746865207a65726f2061646460008201527f7265737300000000000000000000000000000000000000000000000000000000602082015250565b7f4552433732313a20617070726f766520746f2063616c6c657200000000000000600082015250565b7f455243313136373a2063726561746532206661696c6564000000000000000000600082015250565b7f416464726573733a20756e61626c6520746f2073656e642076616c75652c207260008201527f6563697069656e74206d61792068617665207265766572746564000000000000602082015250565b7f416464726573733a20696e73756666696369656e742062616c616e6365000000600082015250565b7f4552433732313a206f70657261746f7220717565727920666f72206e6f6e657860008201527f697374656e7420746f6b656e0000000000000000000000000000000000000000602082015250565b7f4e6f7420656e6f756768204554482073656e743a20636865636b20707269636560008201527f2e00000000000000000000000000000000000000000000000000000000000000602082015250565b7f4552433732313a20617070726f76652063616c6c6572206973206e6f74206f7760008201527f6e6572206e6f7220617070726f76656420666f7220616c6c0000000000000000602082015250565b7f4552433732313a2062616c616e636520717565727920666f7220746865207a6560008201527f726f206164647265737300000000000000000000000000000000000000000000602082015250565b7f4552433732313a206f776e657220717565727920666f72206e6f6e657869737460008201527f656e7420746f6b656e0000000000000000000000000000000000000000000000602082015250565b7f45524337323155524953746f726167653a2055524920736574206f66206e6f6e60008201527f6578697374656e7420746f6b656e000000000000000000000000000000000000602082015250565b7f4552433732313a206d696e7420746f20746865207a65726f2061646472657373600082015250565b7f45524337323155524953746f726167653a2055524920717565727920666f722060008201527f6e6f6e6578697374656e7420746f6b656e000000000000000000000000000000602082015250565b7f4552433732313a20617070726f76656420717565727920666f72206e6f6e657860008201527f697374656e7420746f6b656e0000000000000000000000000000000000000000602082015250565b7f4f776e61626c653a2063616c6c6572206973206e6f7420746865206f776e6572600082015250565b7f4552433732313a207472616e73666572206f6620746f6b656e2074686174206960008201527f73206e6f74206f776e0000000000000000000000000000000000000000000000602082015250565b7f4552433732314d657461646174613a2055524920717565727920666f72206e6f60008201527f6e6578697374656e7420746f6b656e0000000000000000000000000000000000602082015250565b7f4552433732313a20617070726f76616c20746f2063757272656e74206f776e6560008201527f7200000000000000000000000000000000000000000000000000000000000000602082015250565b50565b7f4552433732313a207472616e736665722063616c6c6572206973206e6f74206f60008201527f776e6572206e6f7220617070726f766564000000000000000000000000000000602082015250565b7f496e76616c69642070726f6f662e000000000000000000000000000000000000600082015250565b7f416c6c206361737365747465732068617665206265656e206d696e7465640000600082015250565b7f5461706520616c726561647920636c61696d65642e0000000000000000000000600082015250565b61454181613b30565b811461454c57600080fd5b50565b61455881613b42565b811461456357600080fd5b50565b61456f81613b58565b811461457a57600080fd5b50565b61458681613ba4565b811461459157600080fd5b50565b61459d81613bae565b81146145a857600080fd5b5056fea2646970667358221220cf9bc721474d92ee77ad9900914c908d67a74e28bad71a958873128f9cb5680764736f6c63430008060033",
  "linkReferences": {},
  "deployedLinkReferences": {}
}