{
  "_format": "hh-sol-artifact-1",
  "contractName": "Mixtape",
  "sourceName": "contracts/Mixtape.sol",
  "abi": [
    {
      "inputs": [
        {
          "internalType": "bytes32",
          "name": "merkleRoot_",
          "type": "bytes32"
        }
      ],
      "stateMutability": "nonpayable",
      "type": "constructor"
    },
    {
      "anonymous": false,
      "inputs": [
        {
          "indexed": true,
          "internalType": "address",
          "name": "owner",
          "type": "address"
        },
        {
          "indexed": true,
          "internalType": "address",
          "name": "approved",
          "type": "address"
        },
        {
          "indexed": true,
          "internalType": "uint256",
          "name": "tokenId",
          "type": "uint256"
        }
      ],
      "name": "Approval",
      "type": "event"
    },
    {
      "anonymous": false,
      "inputs": [
        {
          "indexed": true,
          "internalType": "address",
          "name": "owner",
          "type": "address"
        },
        {
          "indexed": true,
          "internalType": "address",
          "name": "operator",
          "type": "address"
        },
        {
          "indexed": false,
          "internalType": "bool",
          "name": "approved",
          "type": "bool"
        }
      ],
      "name": "ApprovalForAll",
      "type": "event"
    },
    {
      "anonymous": false,
      "inputs": [
        {
          "indexed": false,
          "internalType": "uint256",
          "name": "index",
          "type": "uint256"
        },
        {
          "indexed": false,
          "internalType": "uint8",
          "name": "capacity",
          "type": "uint8"
        },
        {
          "indexed": false,
          "internalType": "uint32",
          "name": "quality",
          "type": "uint32"
        },
        {
          "indexed": false,
          "internalType": "uint32",
          "name": "style",
          "type": "uint32"
        }
      ],
      "name": "Claimed",
      "type": "event"
    },
    {
      "anonymous": false,
      "inputs": [
        {
          "indexed": true,
          "internalType": "address",
          "name": "previousOwner",
          "type": "address"
        },
        {
          "indexed": true,
          "internalType": "address",
          "name": "newOwner",
          "type": "address"
        }
      ],
      "name": "OwnershipTransferred",
      "type": "event"
    },
    {
      "anonymous": false,
      "inputs": [
        {
          "indexed": true,
          "internalType": "address",
          "name": "from",
          "type": "address"
        },
        {
          "indexed": true,
          "internalType": "address",
          "name": "to",
          "type": "address"
        },
        {
          "indexed": true,
          "internalType": "uint256",
          "name": "tokenId",
          "type": "uint256"
        }
      ],
      "name": "Transfer",
      "type": "event"
    },
    {
      "inputs": [],
      "name": "CASSETTE_CREATION_LIMIT",
      "outputs": [
        {
          "internalType": "uint256",
          "name": "",
          "type": "uint256"
        }
      ],
      "stateMutability": "view",
      "type": "function"
    },
    {
      "inputs": [
        {
          "internalType": "uint256",
          "name": "index",
          "type": "uint256"
        }
      ],
      "name": "acceptBid",
      "outputs": [],
      "stateMutability": "nonpayable",
      "type": "function"
    },
    {
      "inputs": [],
      "name": "allCassettesClaimed",
      "outputs": [
        {
          "internalType": "bool",
          "name": "",
          "type": "bool"
        }
      ],
      "stateMutability": "view",
      "type": "function"
    },
    {
      "inputs": [
        {
          "internalType": "address",
          "name": "to",
          "type": "address"
        },
        {
          "internalType": "uint256",
          "name": "tokenId",
          "type": "uint256"
        }
      ],
      "name": "approve",
      "outputs": [],
      "stateMutability": "nonpayable",
      "type": "function"
    },
    {
      "inputs": [
        {
          "internalType": "address",
          "name": "owner",
          "type": "address"
        }
      ],
      "name": "balanceOf",
      "outputs": [
        {
          "internalType": "uint256",
          "name": "",
          "type": "uint256"
        }
      ],
      "stateMutability": "view",
      "type": "function"
    },
    {
      "inputs": [],
      "name": "baseURI",
      "outputs": [
        {
          "internalType": "string",
          "name": "",
          "type": "string"
        }
      ],
      "stateMutability": "view",
      "type": "function"
    },
    {
      "inputs": [
        {
          "internalType": "uint256",
          "name": "index",
          "type": "uint256"
        }
      ],
      "name": "bid",
      "outputs": [],
      "stateMutability": "payable",
      "type": "function"
    },
    {
      "inputs": [
        {
          "internalType": "uint256",
          "name": "",
          "type": "uint256"
        }
      ],
      "name": "cassetteBids",
      "outputs": [
        {
          "internalType": "bool",
          "name": "activeBid",
          "type": "bool"
        },
        {
          "internalType": "uint256",
          "name": "cassetteIndex",
          "type": "uint256"
        },
        {
          "internalType": "address",
          "name": "bidder",
          "type": "address"
        },
        {
          "internalType": "uint256",
          "name": "amount",
          "type": "uint256"
        }
      ],
      "stateMutability": "view",
      "type": "function"
    },
    {
      "inputs": [],
      "name": "cassettesCreatedCount",
      "outputs": [
        {
          "internalType": "uint256",
          "name": "",
          "type": "uint256"
        }
      ],
      "stateMutability": "view",
      "type": "function"
    },
    {
      "inputs": [
        {
          "internalType": "uint256",
          "name": "index",
          "type": "uint256"
        },
        {
          "internalType": "uint8",
          "name": "capacity",
          "type": "uint8"
        },
        {
          "internalType": "uint32",
          "name": "quality",
          "type": "uint32"
        },
        {
          "internalType": "uint32",
          "name": "style",
          "type": "uint32"
        },
        {
          "internalType": "bytes32[]",
          "name": "merkleProof",
          "type": "bytes32[]"
        },
        {
          "internalType": "string",
          "name": "tokenURI",
          "type": "string"
        }
      ],
      "name": "claim",
      "outputs": [],
      "stateMutability": "nonpayable",
      "type": "function"
    },
    {
      "inputs": [
        {
          "internalType": "uint256",
          "name": "mixtapeId",
          "type": "uint256"
        },
        {
          "internalType": "string",
          "name": "tokenURI",
          "type": "string"
        }
      ],
      "name": "editMixtape",
      "outputs": [],
      "stateMutability": "nonpayable",
      "type": "function"
    },
    {
      "inputs": [
        {
          "internalType": "uint256",
          "name": "tokenId",
          "type": "uint256"
        }
      ],
      "name": "getApproved",
      "outputs": [
        {
          "internalType": "address",
          "name": "",
          "type": "address"
        }
      ],
      "stateMutability": "view",
      "type": "function"
    },
    {
      "inputs": [
        {
          "internalType": "address",
          "name": "owner",
          "type": "address"
        },
        {
          "internalType": "address",
          "name": "operator",
          "type": "address"
        }
      ],
      "name": "isApprovedForAll",
      "outputs": [
        {
          "internalType": "bool",
          "name": "",
          "type": "bool"
        }
      ],
      "stateMutability": "view",
      "type": "function"
    },
    {
      "inputs": [
        {
          "internalType": "uint256",
          "name": "index",
          "type": "uint256"
        }
      ],
      "name": "isClaimed",
      "outputs": [
        {
          "internalType": "bool",
          "name": "",
          "type": "bool"
        }
      ],
      "stateMutability": "view",
      "type": "function"
    },
    {
      "inputs": [],
      "name": "merkleRoot",
      "outputs": [
        {
          "internalType": "bytes32",
          "name": "",
          "type": "bytes32"
        }
      ],
      "stateMutability": "view",
      "type": "function"
    },
    {
      "inputs": [
        {
          "internalType": "uint256",
          "name": "",
          "type": "uint256"
        }
      ],
      "name": "mixes",
      "outputs": [
        {
          "internalType": "uint8",
          "name": "capacity",
          "type": "uint8"
        },
        {
          "internalType": "uint32",
          "name": "quality",
          "type": "uint32"
        },
        {
          "internalType": "uint32",
          "name": "style",
          "type": "uint32"
        }
      ],
      "stateMutability": "view",
      "type": "function"
    },
    {
      "inputs": [],
      "name": "name",
      "outputs": [
        {
          "internalType": "string",
          "name": "",
          "type": "string"
        }
      ],
      "stateMutability": "view",
      "type": "function"
    },
    {
      "inputs": [],
      "name": "owner",
      "outputs": [
        {
          "internalType": "address",
          "name": "",
          "type": "address"
        }
      ],
      "stateMutability": "view",
      "type": "function"
    },
    {
      "inputs": [
        {
          "internalType": "uint256",
          "name": "tokenId",
          "type": "uint256"
        }
      ],
      "name": "ownerOf",
      "outputs": [
        {
          "internalType": "address",
          "name": "",
          "type": "address"
        }
      ],
      "stateMutability": "view",
      "type": "function"
    },
    {
      "inputs": [],
      "name": "renounceOwnership",
      "outputs": [],
      "stateMutability": "nonpayable",
      "type": "function"
    },
    {
      "inputs": [
        {
          "internalType": "address",
          "name": "from",
          "type": "address"
        },
        {
          "internalType": "address",
          "name": "to",
          "type": "address"
        },
        {
          "internalType": "uint256",
          "name": "tokenId",
          "type": "uint256"
        }
      ],
      "name": "safeTransferFrom",
      "outputs": [],
      "stateMutability": "nonpayable",
      "type": "function"
    },
    {
      "inputs": [
        {
          "internalType": "address",
          "name": "from",
          "type": "address"
        },
        {
          "internalType": "address",
          "name": "to",
          "type": "address"
        },
        {
          "internalType": "uint256",
          "name": "tokenId",
          "type": "uint256"
        },
        {
          "internalType": "bytes",
          "name": "_data",
          "type": "bytes"
        }
      ],
      "name": "safeTransferFrom",
      "outputs": [],
      "stateMutability": "nonpayable",
      "type": "function"
    },
    {
      "inputs": [
        {
          "internalType": "address",
          "name": "operator",
          "type": "address"
        },
        {
          "internalType": "bool",
          "name": "approved",
          "type": "bool"
        }
      ],
      "name": "setApprovalForAll",
      "outputs": [],
      "stateMutability": "nonpayable",
      "type": "function"
    },
    {
      "inputs": [
        {
          "internalType": "bytes4",
          "name": "interfaceId",
          "type": "bytes4"
        }
      ],
      "name": "supportsInterface",
      "outputs": [
        {
          "internalType": "bool",
          "name": "",
          "type": "bool"
        }
      ],
      "stateMutability": "view",
      "type": "function"
    },
    {
      "inputs": [],
      "name": "symbol",
      "outputs": [
        {
          "internalType": "string",
          "name": "",
          "type": "string"
        }
      ],
      "stateMutability": "view",
      "type": "function"
    },
    {
      "inputs": [
        {
          "internalType": "uint256",
          "name": "index",
          "type": "uint256"
        }
      ],
      "name": "tokenByIndex",
      "outputs": [
        {
          "internalType": "uint256",
          "name": "",
          "type": "uint256"
        }
      ],
      "stateMutability": "view",
      "type": "function"
    },
    {
      "inputs": [
        {
          "internalType": "address",
          "name": "owner",
          "type": "address"
        },
        {
          "internalType": "uint256",
          "name": "index",
          "type": "uint256"
        }
      ],
      "name": "tokenOfOwnerByIndex",
      "outputs": [
        {
          "internalType": "uint256",
          "name": "",
          "type": "uint256"
        }
      ],
      "stateMutability": "view",
      "type": "function"
    },
    {
      "inputs": [
        {
          "internalType": "uint256",
          "name": "tokenId",
          "type": "uint256"
        }
      ],
      "name": "tokenURI",
      "outputs": [
        {
          "internalType": "string",
          "name": "",
          "type": "string"
        }
      ],
      "stateMutability": "view",
      "type": "function"
    },
    {
      "inputs": [],
      "name": "totalSupply",
      "outputs": [
        {
          "internalType": "uint256",
          "name": "",
          "type": "uint256"
        }
      ],
      "stateMutability": "view",
      "type": "function"
    },
    {
      "inputs": [
        {
          "internalType": "address",
          "name": "from",
          "type": "address"
        },
        {
          "internalType": "address",
          "name": "to",
          "type": "address"
        },
        {
          "internalType": "uint256",
          "name": "tokenId",
          "type": "uint256"
        }
      ],
      "name": "transferFrom",
      "outputs": [],
      "stateMutability": "nonpayable",
      "type": "function"
    },
    {
      "inputs": [
        {
          "internalType": "address",
          "name": "newOwner",
          "type": "address"
        }
      ],
      "name": "transferOwnership",
      "outputs": [],
      "stateMutability": "nonpayable",
      "type": "function"
    }
  ],
  "bytecode": "0x60a06040526000600d60006101000a81548160ff0219169083151502179055503480156200002c57600080fd5b506040516200433638038062004336833981810160405260208110156200005257600080fd5b81019080805190602001909291905050506040518060400160405280600781526020017f4e465461706573000000000000000000000000000000000000000000000000008152506040518060400160405280600481526020017f5441504500000000000000000000000000000000000000000000000000000000815250620000e76301ffc9a760e01b6200022360201b60201c565b8160069080519060200190620000ff92919062000334565b5080600790805190602001906200011892919062000334565b50620001316380ac58cd60e01b6200022360201b60201c565b62000149635b5e139f60e01b6200022360201b60201c565b6200016163780e9d6360e01b6200022360201b60201c565b50506000620001756200032c60201b60201c565b905080600a60006101000a81548173ffffffffffffffffffffffffffffffffffffffff021916908373ffffffffffffffffffffffffffffffffffffffff1602179055508073ffffffffffffffffffffffffffffffffffffffff16600073ffffffffffffffffffffffffffffffffffffffff167f8be0079c531659141344cd1fd0a4f28419497f9722a3daafe3b4186f6b6457e060405160405180910390a350806080818152505050620003da565b63ffffffff60e01b817bffffffffffffffffffffffffffffffffffffffffffffffffffffffff19161415620002c0576040517f08c379a000000000000000000000000000000000000000000000000000000000815260040180806020018281038252601c8152602001807f4552433136353a20696e76616c696420696e746572666163652069640000000081525060200191505060405180910390fd5b6001600080837bffffffffffffffffffffffffffffffffffffffffffffffffffffffff19167bffffffffffffffffffffffffffffffffffffffffffffffffffffffff1916815260200190815260200160002060006101000a81548160ff02191690831515021790555050565b600033905090565b828054600181600116156101000203166002900490600052602060002090601f016020900481019282601f106200037757805160ff1916838001178555620003a8565b82800160010185558215620003a8579182015b82811115620003a75782518255916020019190600101906200038a565b5b509050620003b79190620003bb565b5090565b5b80821115620003d6576000816000905550600101620003bc565b5090565b608051613f3c620003fa600039806114bf52806123565250613f3c6000f3fe6080604052600436106101d85760003560e01c80636bcc5b8d11610102578063a5bc2c9f11610095578063c87b56dd11610064578063c87b56dd14610c4f578063dbaa35ea14610d03578063e985e9c514610e57578063f2fde38b14610ede576101d8565b8063a5bc2c9f14610a79578063a651958e14610aa6578063b7dacf6614610ad1578063b88d4fde14610b3d576101d8565b80638da5cb5b116100d15780638da5cb5b146108fa57806395d89b411461093b5780639e34070f146109cb578063a22cb46514610a1c576101d8565b80636bcc5b8d146107725780636c0360eb146107ee57806370a082311461087e578063715018a6146108e3576101d8565b80632b1fd58a1161017a57806342842e0e1161014957806342842e0e14610615578063454a2ab3146106905780634f6ccce7146106be5780636352211e1461070d576101d8565b80632b1fd58a1461046e5780632cdae39b146104a95780632eb4a7ab1461057b5780632f745c59146105a6576101d8565b8063081812fc116101b6578063081812fc14610308578063095ea7b31461036d57806318160ddd146103c857806323b872dd146103f3576101d8565b806301ffc9a7146101dd578063033263e51461024d57806306fdde0314610278575b600080fd5b3480156101e957600080fd5b506102356004803603602081101561020057600080fd5b8101908080357bffffffffffffffffffffffffffffffffffffffffffffffffffffffff19169060200190929190505050610f2f565b60405180821515815260200191505060405180910390f35b34801561025957600080fd5b50610262610f96565b6040518082815260200191505060405180910390f35b34801561028457600080fd5b5061028d610f9c565b6040518080602001828103825283818151815260200191508051906020019080838360005b838110156102cd5780820151818401526020810190506102b2565b50505050905090810190601f1680156102fa5780820380516001836020036101000a031916815260200191505b509250505060405180910390f35b34801561031457600080fd5b506103416004803603602081101561032b57600080fd5b810190808035906020019092919050505061103e565b604051808273ffffffffffffffffffffffffffffffffffffffff16815260200191505060405180910390f35b34801561037957600080fd5b506103c66004803603604081101561039057600080fd5b81019080803573ffffffffffffffffffffffffffffffffffffffff169060200190929190803590602001909291905050506110d9565b005b3480156103d457600080fd5b506103dd61121d565b6040518082815260200191505060405180910390f35b3480156103ff57600080fd5b5061046c6004803603606081101561041657600080fd5b81019080803573ffffffffffffffffffffffffffffffffffffffff169060200190929190803573ffffffffffffffffffffffffffffffffffffffff1690602001909291908035906020019092919050505061122e565b005b34801561047a57600080fd5b506104a76004803603602081101561049157600080fd5b81019080803590602001909291905050506112a4565b005b3480156104b557600080fd5b50610579600480360360408110156104cc57600080fd5b8101908080359060200190929190803590602001906401000000008111156104f357600080fd5b82018360208201111561050557600080fd5b8035906020019184600183028401116401000000008311171561052757600080fd5b91908080601f016020809104026020016040519081016040528093929190818152602001838380828437600081840152601f19601f8201169050808301925050505050505091929192905050506114af565b005b34801561058757600080fd5b506105906114bd565b6040518082815260200191505060405180910390f35b3480156105b257600080fd5b506105ff600480360360408110156105c957600080fd5b81019080803573ffffffffffffffffffffffffffffffffffffffff169060200190929190803590602001909291905050506114e1565b6040518082815260200191505060405180910390f35b34801561062157600080fd5b5061068e6004803603606081101561063857600080fd5b81019080803573ffffffffffffffffffffffffffffffffffffffff169060200190929190803573ffffffffffffffffffffffffffffffffffffffff1690602001909291908035906020019092919050505061153c565b005b6106bc600480360360208110156106a657600080fd5b810190808035906020019092919050505061155c565b005b3480156106ca57600080fd5b506106f7600480360360208110156106e157600080fd5b810190808035906020019092919050505061178b565b6040518082815260200191505060405180910390f35b34801561071957600080fd5b506107466004803603602081101561073057600080fd5b81019080803590602001909291905050506117ae565b604051808273ffffffffffffffffffffffffffffffffffffffff16815260200191505060405180910390f35b34801561077e57600080fd5b506107ab6004803603602081101561079557600080fd5b81019080803590602001909291905050506117e5565b6040518085151581526020018481526020018373ffffffffffffffffffffffffffffffffffffffff16815260200182815260200194505050505060405180910390f35b3480156107fa57600080fd5b50610803611842565b6040518080602001828103825283818151815260200191508051906020019080838360005b83811015610843578082015181840152602081019050610828565b50505050905090810190601f1680156108705780820380516001836020036101000a031916815260200191505b509250505060405180910390f35b34801561088a57600080fd5b506108cd600480360360208110156108a157600080fd5b81019080803573ffffffffffffffffffffffffffffffffffffffff1690602001909291905050506118e4565b6040518082815260200191505060405180910390f35b3480156108ef57600080fd5b506108f86119b9565b005b34801561090657600080fd5b5061090f611b29565b604051808273ffffffffffffffffffffffffffffffffffffffff16815260200191505060405180910390f35b34801561094757600080fd5b50610950611b53565b6040518080602001828103825283818151815260200191508051906020019080838360005b83811015610990578082015181840152602081019050610975565b50505050905090810190601f1680156109bd5780820380516001836020036101000a031916815260200191505b509250505060405180910390f35b3480156109d757600080fd5b50610a04600480360360208110156109ee57600080fd5b8101908080359060200190929190505050611bf5565b60405180821515815260200191505060405180910390f35b348015610a2857600080fd5b50610a7760048036036040811015610a3f57600080fd5b81019080803573ffffffffffffffffffffffffffffffffffffffff169060200190929190803515159060200190929190505050611c47565b005b348015610a8557600080fd5b50610a8e611dfd565b60405180821515815260200191505060405180910390f35b348015610ab257600080fd5b50610abb611e10565b6040518082815260200191505060405180910390f35b348015610add57600080fd5b50610b0a60048036036020811015610af457600080fd5b8101908080359060200190929190505050611e16565b604051808460ff1681526020018363ffffffff1681526020018263ffffffff168152602001935050505060405180910390f35b348015610b4957600080fd5b50610c4d60048036036080811015610b6057600080fd5b81019080803573ffffffffffffffffffffffffffffffffffffffff169060200190929190803573ffffffffffffffffffffffffffffffffffffffff1690602001909291908035906020019092919080359060200190640100000000811115610bc757600080fd5b820183602082011115610bd957600080fd5b80359060200191846001830284011164010000000083111715610bfb57600080fd5b91908080601f016020809104026020016040519081016040528093929190818152602001838380828437600081840152601f19601f820116905080830192505050505050509192919290505050611e76565b005b348015610c5b57600080fd5b50610c8860048036036020811015610c7257600080fd5b8101908080359060200190929190505050611eee565b6040518080602001828103825283818151815260200191508051906020019080838360005b83811015610cc8578082015181840152602081019050610cad565b50505050905090810190601f168015610cf55780820380516001836020036101000a031916815260200191505b509250505060405180910390f35b348015610d0f57600080fd5b50610e55600480360360c0811015610d2657600080fd5b8101908080359060200190929190803560ff169060200190929190803563ffffffff169060200190929190803563ffffffff16906020019092919080359060200190640100000000811115610d7a57600080fd5b820183602082011115610d8c57600080fd5b80359060200191846020830284011164010000000083111715610dae57600080fd5b909192939192939080359060200190640100000000811115610dcf57600080fd5b820183602082011115610de157600080fd5b80359060200191846001830284011164010000000083111715610e0357600080fd5b91908080601f016020809104026020016040519081016040528093929190818152602001838380828437600081840152601f19601f8201169050808301925050505050505091929192905050506121bf565b005b348015610e6357600080fd5b50610ec660048036036040811015610e7a57600080fd5b81019080803573ffffffffffffffffffffffffffffffffffffffff169060200190929190803573ffffffffffffffffffffffffffffffffffffffff169060200190929190505050612546565b60405180821515815260200191505060405180910390f35b348015610eea57600080fd5b50610f2d60048036036020811015610f0157600080fd5b81019080803573ffffffffffffffffffffffffffffffffffffffff1690602001909291905050506125da565b005b6000806000837bffffffffffffffffffffffffffffffffffffffffffffffffffffffff19167bffffffffffffffffffffffffffffffffffffffffffffffffffffffff1916815260200190815260200160002060009054906101000a900460ff169050919050565b6103e881565b606060068054600181600116156101000203166002900480601f0160208091040260200160405190810160405280929190818152602001828054600181600116156101000203166002900480156110345780601f1061100957610100808354040283529160200191611034565b820191906000526020600020905b81548152906001019060200180831161101757829003601f168201915b5050505050905090565b6000611049826127cf565b61109e576040517f08c379a000000000000000000000000000000000000000000000000000000000815260040180806020018281038252602c815260200180613ddf602c913960400191505060405180910390fd5b6004600083815260200190815260200160002060009054906101000a900473ffffffffffffffffffffffffffffffffffffffff169050919050565b60006110e4826117ae565b90508073ffffffffffffffffffffffffffffffffffffffff168373ffffffffffffffffffffffffffffffffffffffff16141561116b576040517f08c379a0000000000000000000000000000000000000000000000000000000008152600401808060200182810382526021815260200180613eb56021913960400191505060405180910390fd5b8073ffffffffffffffffffffffffffffffffffffffff1661118a6127ec565b73ffffffffffffffffffffffffffffffffffffffff1614806111b957506111b8816111b36127ec565b612546565b5b61120e576040517f08c379a0000000000000000000000000000000000000000000000000000000008152600401808060200182810382526038815260200180613d326038913960400191505060405180910390fd5b61121883836127f4565b505050565b600061122960026128ad565b905090565b61123f6112396127ec565b826128c2565b611294576040517f08c379a0000000000000000000000000000000000000000000000000000000008152600401808060200182810382526031815260200180613ed66031913960400191505060405180910390fd5b61129f8383836129b6565b505050565b3373ffffffffffffffffffffffffffffffffffffffff166112c4826117ae565b73ffffffffffffffffffffffffffffffffffffffff161461134d576040517f08c379a00000000000000000000000000000000000000000000000000000000081526004018080602001828103825260208152602001807f4d757374206265206f776e657220746f2061636365707420746865206269642e81525060200191505060405180910390fd5b6000600f60008381526020019081526020016000209050611393338260020160009054906101000a900473ffffffffffffffffffffffffffffffffffffffff16846129b6565b3373ffffffffffffffffffffffffffffffffffffffff166108fc82600301549081150290604051600060405180830381858888f193505050501580156113dd573d6000803e3d6000fd5b506040518060800160405280600015158152602001838152602001600073ffffffffffffffffffffffffffffffffffffffff1681526020016000815250600f600084815260200190815260200160002060008201518160000160006101000a81548160ff0219169083151502179055506020820151816001015560408201518160020160006101000a81548173ffffffffffffffffffffffffffffffffffffffff021916908373ffffffffffffffffffffffffffffffffffffffff160217905550606082015181600301559050505050565b6114b98282612bf9565b5050565b7f000000000000000000000000000000000000000000000000000000000000000081565b600061153482600160008673ffffffffffffffffffffffffffffffffffffffff1673ffffffffffffffffffffffffffffffffffffffff168152602001908152602001600020612c8390919063ffffffff16565b905092915050565b61155783838360405180602001604052806000815250611e76565b505050565b6103e881106115d3576040517f08c379a000000000000000000000000000000000000000000000000000000000815260040180806020018281038252601d8152602001807f43616e6e6f7420626964206f6e20756e636c61696d656420746170652e00000081525060200191505060405180910390fd5b60003411611649576040517f08c379a000000000000000000000000000000000000000000000000000000000815260040180806020018281038252601b8152602001807f426967206d7573742062652067726561746572207468616e20302e000000000081525060200191505060405180910390fd5b6000600f60008381526020019081526020016000209050806003015434116116bc576040517f08c379a0000000000000000000000000000000000000000000000000000000008152600401808060200182810382526026815260200180613e376026913960400191505060405180910390fd5b60405180608001604052806001151581526020018381526020013373ffffffffffffffffffffffffffffffffffffffff16815260200134815250600f600084815260200190815260200160002060008201518160000160006101000a81548160ff0219169083151502179055506020820151816001015560408201518160020160006101000a81548173ffffffffffffffffffffffffffffffffffffffff021916908373ffffffffffffffffffffffffffffffffffffffff160217905550606082015181600301559050505050565b6000806117a2836002612c9d90919063ffffffff16565b50905080915050919050565b60006117de82604051806060016040528060298152602001613d94602991396002612cc99092919063ffffffff16565b9050919050565b600f6020528060005260406000206000915090508060000160009054906101000a900460ff16908060010154908060020160009054906101000a900473ffffffffffffffffffffffffffffffffffffffff16908060030154905084565b606060098054600181600116156101000203166002900480601f0160208091040260200160405190810160405280929190818152602001828054600181600116156101000203166002900480156118da5780601f106118af576101008083540402835291602001916118da565b820191906000526020600020905b8154815290600101906020018083116118bd57829003601f168201915b5050505050905090565b60008073ffffffffffffffffffffffffffffffffffffffff168273ffffffffffffffffffffffffffffffffffffffff16141561196b576040517f08c379a000000000000000000000000000000000000000000000000000000000815260040180806020018281038252602a815260200180613d6a602a913960400191505060405180910390fd5b6119b2600160008473ffffffffffffffffffffffffffffffffffffffff1673ffffffffffffffffffffffffffffffffffffffff168152602001908152602001600020612ce8565b9050919050565b6119c16127ec565b73ffffffffffffffffffffffffffffffffffffffff166119df611b29565b73ffffffffffffffffffffffffffffffffffffffff1614611a68576040517f08c379a00000000000000000000000000000000000000000000000000000000081526004018080602001828103825260208152602001807f4f776e61626c653a2063616c6c6572206973206e6f7420746865206f776e657281525060200191505060405180910390fd5b600073ffffffffffffffffffffffffffffffffffffffff16600a60009054906101000a900473ffffffffffffffffffffffffffffffffffffffff1673ffffffffffffffffffffffffffffffffffffffff167f8be0079c531659141344cd1fd0a4f28419497f9722a3daafe3b4186f6b6457e060405160405180910390a36000600a60006101000a81548173ffffffffffffffffffffffffffffffffffffffff021916908373ffffffffffffffffffffffffffffffffffffffff160217905550565b6000600a60009054906101000a900473ffffffffffffffffffffffffffffffffffffffff16905090565b606060078054600181600116156101000203166002900480601f016020809104026020016040519081016040528092919081815260200182805460018160011615610100020316600290048015611beb5780601f10611bc057610100808354040283529160200191611beb565b820191906000526020600020905b815481529060010190602001808311611bce57829003601f168201915b5050505050905090565b6000806101008381611c0357fe5b04905060006101008481611c1357fe5b0690506000600c60008481526020019081526020016000205490506000826001901b90508081831614945050505050919050565b611c4f6127ec565b73ffffffffffffffffffffffffffffffffffffffff168273ffffffffffffffffffffffffffffffffffffffff161415611cf0576040517f08c379a00000000000000000000000000000000000000000000000000000000081526004018080602001828103825260198152602001807f4552433732313a20617070726f766520746f2063616c6c65720000000000000081525060200191505060405180910390fd5b8060056000611cfd6127ec565b73ffffffffffffffffffffffffffffffffffffffff1673ffffffffffffffffffffffffffffffffffffffff16815260200190815260200160002060008473ffffffffffffffffffffffffffffffffffffffff1673ffffffffffffffffffffffffffffffffffffffff16815260200190815260200160002060006101000a81548160ff0219169083151502179055508173ffffffffffffffffffffffffffffffffffffffff16611daa6127ec565b73ffffffffffffffffffffffffffffffffffffffff167f17307eab39ab6107e8899845ad3d59bd9653f200f220920489ca2b5937696c318360405180821515815260200191505060405180910390a35050565b600d60009054906101000a900460ff1681565b600b5481565b600e8181548110611e2357fe5b906000526020600020016000915090508060000160009054906101000a900460ff16908060000160019054906101000a900463ffffffff16908060000160059054906101000a900463ffffffff16905083565b611e87611e816127ec565b836128c2565b611edc576040517f08c379a0000000000000000000000000000000000000000000000000000000008152600401808060200182810382526031815260200180613ed66031913960400191505060405180910390fd5b611ee884848484612cfd565b50505050565b6060611ef9826127cf565b611f4e576040517f08c379a000000000000000000000000000000000000000000000000000000000815260040180806020018281038252602f815260200180613e86602f913960400191505060405180910390fd5b6060600860008481526020019081526020016000208054600181600116156101000203166002900480601f016020809104026020016040519081016040528092919081815260200182805460018160011615610100020316600290048015611ff75780601f10611fcc57610100808354040283529160200191611ff7565b820191906000526020600020905b815481529060010190602001808311611fda57829003601f168201915b505050505090506060612008611842565b905060008151141561201e5781925050506121ba565b6000825111156120ef5780826040516020018083805190602001908083835b60208310612060578051825260208201915060208101905060208303925061203d565b6001836020036101000a03801982511681845116808217855250505050505090500182805190602001908083835b602083106120b1578051825260208201915060208101905060208303925061208e565b6001836020036101000a03801982511681845116808217855250505050505090500192505050604051602081830303815290604052925050506121ba565b806120f985612d6f565b6040516020018083805190602001908083835b6020831061212f578051825260208201915060208101905060208303925061210c565b6001836020036101000a03801982511681845116808217855250505050505090500182805190602001908083835b60208310612180578051825260208201915060208101905060208303925061215d565b6001836020036101000a03801982511681845116808217855250505050505090500192505050604051602081830303815290604052925050505b919050565b6121c887611bf5565b1561223b576040517f08c379a00000000000000000000000000000000000000000000000000000000081526004018080602001828103825260158152602001807f5461706520616c726561647920636c61696d65642e000000000000000000000081525060200191505060405180910390fd5b6103e8600b54106122b4576040517f08c379a00000000000000000000000000000000000000000000000000000000081526004018080602001828103825260168152602001807f4372656174696f6e206c696d697420726561636865640000000000000000000081525060200191505060405180910390fd5b600087878787604051602001808581526020018460ff1660f81b81526001018363ffffffff1660e01b81526004018263ffffffff1660e01b815260040194505050505060405160208183030381529060405280519060200120905061237b848480806020026020016040519081016040528093929190818152602001838360200280828437600081840152601f19601f820116905080830192505050505050507f000000000000000000000000000000000000000000000000000000000000000083612eb6565b6123ed576040517f08c379a000000000000000000000000000000000000000000000000000000000815260040180806020018281038252600e8152602001807f496e76616c69642070726f6f662e00000000000000000000000000000000000081525060200191505060405180910390fd5b6123f688612f6b565b600e60405180606001604052808960ff1681526020018863ffffffff1681526020018763ffffffff168152509080600181540180825580915050600190039060005260206000200160009091909190915060008201518160000160006101000a81548160ff021916908360ff16021790555060208201518160000160016101000a81548163ffffffff021916908363ffffffff16021790555060408201518160000160056101000a81548163ffffffff021916908363ffffffff16021790555050506124c23389612fc1565b6124cc8883612bf9565b600b600081548092919060010191905055507f7b7d388ff0f6353df7fb667d8e897652b2f183ae84d26c7f035cd5b0a196700388888888604051808581526020018460ff1681526020018363ffffffff1681526020018263ffffffff16815260200194505050505060405180910390a15050505050505050565b6000600560008473ffffffffffffffffffffffffffffffffffffffff1673ffffffffffffffffffffffffffffffffffffffff16815260200190815260200160002060008373ffffffffffffffffffffffffffffffffffffffff1673ffffffffffffffffffffffffffffffffffffffff16815260200190815260200160002060009054906101000a900460ff16905092915050565b6125e26127ec565b73ffffffffffffffffffffffffffffffffffffffff16612600611b29565b73ffffffffffffffffffffffffffffffffffffffff1614612689576040517f08c379a00000000000000000000000000000000000000000000000000000000081526004018080602001828103825260208152602001807f4f776e61626c653a2063616c6c6572206973206e6f7420746865206f776e657281525060200191505060405180910390fd5b600073ffffffffffffffffffffffffffffffffffffffff168173ffffffffffffffffffffffffffffffffffffffff16141561270f576040517f08c379a0000000000000000000000000000000000000000000000000000000008152600401808060200182810382526026815260200180613c966026913960400191505060405180910390fd5b8073ffffffffffffffffffffffffffffffffffffffff16600a60009054906101000a900473ffffffffffffffffffffffffffffffffffffffff1673ffffffffffffffffffffffffffffffffffffffff167f8be0079c531659141344cd1fd0a4f28419497f9722a3daafe3b4186f6b6457e060405160405180910390a380600a60006101000a81548173ffffffffffffffffffffffffffffffffffffffff021916908373ffffffffffffffffffffffffffffffffffffffff16021790555050565b60006127e58260026131b590919063ffffffff16565b9050919050565b600033905090565b816004600083815260200190815260200160002060006101000a81548173ffffffffffffffffffffffffffffffffffffffff021916908373ffffffffffffffffffffffffffffffffffffffff160217905550808273ffffffffffffffffffffffffffffffffffffffff16612867836117ae565b73ffffffffffffffffffffffffffffffffffffffff167f8c5be1e5ebec7d5bd14f71427d1e84f3dd0314c0f7b2291e5b200ac8c7c3b92560405160405180910390a45050565b60006128bb826000016131cf565b9050919050565b60006128cd826127cf565b612922576040517f08c379a000000000000000000000000000000000000000000000000000000000815260040180806020018281038252602c815260200180613d06602c913960400191505060405180910390fd5b600061292d836117ae565b90508073ffffffffffffffffffffffffffffffffffffffff168473ffffffffffffffffffffffffffffffffffffffff16148061299c57508373ffffffffffffffffffffffffffffffffffffffff166129848461103e565b73ffffffffffffffffffffffffffffffffffffffff16145b806129ad57506129ac8185612546565b5b91505092915050565b8273ffffffffffffffffffffffffffffffffffffffff166129d6826117ae565b73ffffffffffffffffffffffffffffffffffffffff1614612a42576040517f08c379a0000000000000000000000000000000000000000000000000000000008152600401808060200182810382526029815260200180613e5d6029913960400191505060405180910390fd5b600073ffffffffffffffffffffffffffffffffffffffff168273ffffffffffffffffffffffffffffffffffffffff161415612ac8576040517f08c379a0000000000000000000000000000000000000000000000000000000008152600401808060200182810382526024815260200180613cbc6024913960400191505060405180910390fd5b612ad38383836131e0565b612ade6000826127f4565b612b2f81600160008673ffffffffffffffffffffffffffffffffffffffff1673ffffffffffffffffffffffffffffffffffffffff1681526020019081526020016000206131e590919063ffffffff16565b50612b8181600160008573ffffffffffffffffffffffffffffffffffffffff1673ffffffffffffffffffffffffffffffffffffffff1681526020019081526020016000206131ff90919063ffffffff16565b50612b98818360026132199092919063ffffffff16565b50808273ffffffffffffffffffffffffffffffffffffffff168473ffffffffffffffffffffffffffffffffffffffff167fddf252ad1be2c89b69c2b068fc378daa952ba7f163c4a11628f55a4df523b3ef60405160405180910390a4505050565b612c02826127cf565b612c57576040517f08c379a000000000000000000000000000000000000000000000000000000000815260040180806020018281038252602c815260200180613e0b602c913960400191505060405180910390fd5b80600860008481526020019081526020016000209080519060200190612c7e929190613ba4565b505050565b6000612c92836000018361324e565b60001c905092915050565b600080600080612cb086600001866132d1565b915091508160001c8160001c9350935050509250929050565b6000612cdc846000018460001b8461336a565b60001c90509392505050565b6000612cf682600001613460565b9050919050565b612d088484846129b6565b612d1484848484613471565b612d69576040517f08c379a0000000000000000000000000000000000000000000000000000000008152600401808060200182810382526032815260200180613c646032913960400191505060405180910390fd5b50505050565b60606000821415612db7576040518060400160405280600181526020017f30000000000000000000000000000000000000000000000000000000000000008152509050612eb1565b600082905060005b60008214612de1578080600101915050600a8281612dd957fe5b049150612dbf565b60608167ffffffffffffffff81118015612dfa57600080fd5b506040519080825280601f01601f191660200182016040528015612e2d5781602001600182028036833780820191505090505b50905060006001830390508593505b60008414612ea957600a8481612e4e57fe5b0660300160f81b82828060019003935081518110612e6857fe5b60200101907effffffffffffffffffffffffffffffffffffffffffffffffffffffffffffff1916908160001a905350600a8481612ea157fe5b049350612e3c565b819450505050505b919050565b60008082905060005b8551811015612f5d576000868281518110612ed657fe5b60200260200101519050808311612f1d5782816040516020018083815260200182815260200192505050604051602081830303815290604052805190602001209250612f4f565b808360405160200180838152602001828152602001925050506040516020818303038152906040528051906020012092505b508080600101915050612ebf565b508381149150509392505050565b60006101008281612f7857fe5b04905060006101008381612f8857fe5b069050806001901b600c60008481526020019081526020016000205417600c600084815260200190815260200160002081905550505050565b600073ffffffffffffffffffffffffffffffffffffffff168273ffffffffffffffffffffffffffffffffffffffff161415613064576040517f08c379a00000000000000000000000000000000000000000000000000000000081526004018080602001828103825260208152602001807f4552433732313a206d696e7420746f20746865207a65726f206164647265737381525060200191505060405180910390fd5b61306d816127cf565b156130e0576040517f08c379a000000000000000000000000000000000000000000000000000000000815260040180806020018281038252601c8152602001807f4552433732313a20746f6b656e20616c7265616479206d696e7465640000000081525060200191505060405180910390fd5b6130ec600083836131e0565b61313d81600160008573ffffffffffffffffffffffffffffffffffffffff1673ffffffffffffffffffffffffffffffffffffffff1681526020019081526020016000206131ff90919063ffffffff16565b50613154818360026132199092919063ffffffff16565b50808273ffffffffffffffffffffffffffffffffffffffff16600073ffffffffffffffffffffffffffffffffffffffff167fddf252ad1be2c89b69c2b068fc378daa952ba7f163c4a11628f55a4df523b3ef60405160405180910390a45050565b60006131c7836000018360001b61368a565b905092915050565b600081600001805490509050919050565b505050565b60006131f7836000018360001b6136ad565b905092915050565b6000613211836000018360001b613795565b905092915050565b6000613245846000018460001b8473ffffffffffffffffffffffffffffffffffffffff1660001b613805565b90509392505050565b6000818360000180549050116132af576040517f08c379a0000000000000000000000000000000000000000000000000000000008152600401808060200182810382526022815260200180613c426022913960400191505060405180910390fd5b8260000182815481106132be57fe5b9060005260206000200154905092915050565b60008082846000018054905011613333576040517f08c379a0000000000000000000000000000000000000000000000000000000008152600401808060200182810382526022815260200180613dbd6022913960400191505060405180910390fd5b600084600001848154811061334457fe5b906000526020600020906002020190508060000154816001015492509250509250929050565b60008084600101600085815260200190815260200160002054905060008114158390613431576040517f08c379a00000000000000000000000000000000000000000000000000000000081526004018080602001828103825283818151815260200191508051906020019080838360005b838110156133f65780820151818401526020810190506133db565b50505050905090810190601f1680156134235780820380516001836020036101000a031916815260200191505b509250505060405180910390fd5b5084600001600182038154811061344457fe5b9060005260206000209060020201600101549150509392505050565b600081600001805490509050919050565b60006134928473ffffffffffffffffffffffffffffffffffffffff166138e1565b61349f5760019050613682565b606061360963150b7a0260e01b6134b46127ec565b888787604051602401808573ffffffffffffffffffffffffffffffffffffffff1681526020018473ffffffffffffffffffffffffffffffffffffffff16815260200183815260200180602001828103825283818151815260200191508051906020019080838360005b8381101561353857808201518184015260208101905061351d565b50505050905090810190601f1680156135655780820380516001836020036101000a031916815260200191505b5095505050505050604051602081830303815290604052907bffffffffffffffffffffffffffffffffffffffffffffffffffffffff19166020820180517bffffffffffffffffffffffffffffffffffffffffffffffffffffffff8381831617835250505050604051806060016040528060328152602001613c64603291398773ffffffffffffffffffffffffffffffffffffffff166138f49092919063ffffffff16565b9050600081806020019051602081101561362257600080fd5b8101908080519060200190929190505050905063150b7a0260e01b7bffffffffffffffffffffffffffffffffffffffffffffffffffffffff1916817bffffffffffffffffffffffffffffffffffffffffffffffffffffffff191614925050505b949350505050565b600080836001016000848152602001908152602001600020541415905092915050565b6000808360010160008481526020019081526020016000205490506000811461378957600060018203905060006001866000018054905003905060008660000182815481106136f857fe5b906000526020600020015490508087600001848154811061371557fe5b906000526020600020018190555060018301876001016000838152602001908152602001600020819055508660000180548061374d57fe5b6001900381819060005260206000200160009055905586600101600087815260200190815260200160002060009055600194505050505061378f565b60009150505b92915050565b60006137a1838361390c565b6137fa5782600001829080600181540180825580915050600190039060005260206000200160009091909190915055826000018054905083600101600084815260200190815260200160002081905550600190506137ff565b600090505b92915050565b60008084600101600085815260200190815260200160002054905060008114156138ac578460000160405180604001604052808681526020018581525090806001815401808255809150506001900390600052602060002090600202016000909190919091506000820151816000015560208201518160010155505084600001805490508560010160008681526020019081526020016000208190555060019150506138da565b828560000160018303815481106138bf57fe5b90600052602060002090600202016001018190555060009150505b9392505050565b600080823b905060008111915050919050565b6060613903848460008561392f565b90509392505050565b600080836001016000848152602001908152602001600020541415905092915050565b60608247101561398a576040517f08c379a0000000000000000000000000000000000000000000000000000000008152600401808060200182810382526026815260200180613ce06026913960400191505060405180910390fd5b613993856138e1565b613a05576040517f08c379a000000000000000000000000000000000000000000000000000000000815260040180806020018281038252601d8152602001807f416464726573733a2063616c6c20746f206e6f6e2d636f6e747261637400000081525060200191505060405180910390fd5b600060608673ffffffffffffffffffffffffffffffffffffffff1685876040518082805190602001908083835b60208310613a555780518252602082019150602081019050602083039250613a32565b6001836020036101000a03801982511681845116808217855250505050505090500191505060006040518083038185875af1925050503d8060008114613ab7576040519150601f19603f3d011682016040523d82523d6000602084013e613abc565b606091505b5091509150613acc828286613ad8565b92505050949350505050565b60608315613ae857829050613b9d565b600083511115613afb5782518084602001fd5b816040517f08c379a00000000000000000000000000000000000000000000000000000000081526004018080602001828103825283818151815260200191508051906020019080838360005b83811015613b62578082015181840152602081019050613b47565b50505050905090810190601f168015613b8f5780820380516001836020036101000a031916815260200191505b509250505060405180910390fd5b9392505050565b828054600181600116156101000203166002900490600052602060002090601f016020900481019282601f10613be557805160ff1916838001178555613c13565b82800160010185558215613c13579182015b82811115613c12578251825591602001919060010190613bf7565b5b509050613c209190613c24565b5090565b5b80821115613c3d576000816000905550600101613c25565b509056fe456e756d657261626c655365743a20696e646578206f7574206f6620626f756e64734552433732313a207472616e7366657220746f206e6f6e20455243373231526563656976657220696d706c656d656e7465724f776e61626c653a206e6577206f776e657220697320746865207a65726f20616464726573734552433732313a207472616e7366657220746f20746865207a65726f2061646472657373416464726573733a20696e73756666696369656e742062616c616e636520666f722063616c6c4552433732313a206f70657261746f7220717565727920666f72206e6f6e6578697374656e7420746f6b656e4552433732313a20617070726f76652063616c6c6572206973206e6f74206f776e6572206e6f7220617070726f76656420666f7220616c6c4552433732313a2062616c616e636520717565727920666f7220746865207a65726f20616464726573734552433732313a206f776e657220717565727920666f72206e6f6e6578697374656e7420746f6b656e456e756d657261626c654d61703a20696e646578206f7574206f6620626f756e64734552433732313a20617070726f76656420717565727920666f72206e6f6e6578697374656e7420746f6b656e4552433732314d657461646174613a2055524920736574206f66206e6f6e6578697374656e7420746f6b656e426964206d7573742062652067726561746572207468616e206578697374696e67206269642e4552433732313a207472616e73666572206f6620746f6b656e2074686174206973206e6f74206f776e4552433732314d657461646174613a2055524920717565727920666f72206e6f6e6578697374656e7420746f6b656e4552433732313a20617070726f76616c20746f2063757272656e74206f776e65724552433732313a207472616e736665722063616c6c6572206973206e6f74206f776e6572206e6f7220617070726f766564a26469706673582212209fe30b068dd99ea6479f7ae34826f5b042c9fa1b7d55a9c9d52810ebe0e66f6664736f6c63430007030033",
  "linkReferences": {},
  "deployedLinkReferences": {}
}