{
  "_format": "hh-sol-artifact-1",
  "contractName": "Mixtape",
  "sourceName": "contracts/Mixtape.sol",
  "abi": [
    {
      "inputs": [
        {
          "internalType": "bytes32",
          "name": "merkleRoot_",
          "type": "bytes32"
        }
      ],
      "stateMutability": "nonpayable",
      "type": "constructor"
    },
    {
      "anonymous": false,
      "inputs": [
        {
          "indexed": true,
          "internalType": "address",
          "name": "owner",
          "type": "address"
        },
        {
          "indexed": true,
          "internalType": "address",
          "name": "approved",
          "type": "address"
        },
        {
          "indexed": true,
          "internalType": "uint256",
          "name": "tokenId",
          "type": "uint256"
        }
      ],
      "name": "Approval",
      "type": "event"
    },
    {
      "anonymous": false,
      "inputs": [
        {
          "indexed": true,
          "internalType": "address",
          "name": "owner",
          "type": "address"
        },
        {
          "indexed": true,
          "internalType": "address",
          "name": "operator",
          "type": "address"
        },
        {
          "indexed": false,
          "internalType": "bool",
          "name": "approved",
          "type": "bool"
        }
      ],
      "name": "ApprovalForAll",
      "type": "event"
    },
    {
      "anonymous": false,
      "inputs": [
        {
          "indexed": false,
          "internalType": "uint256",
          "name": "index",
          "type": "uint256"
        },
        {
          "indexed": false,
          "internalType": "uint8",
          "name": "capacity",
          "type": "uint8"
        },
        {
          "indexed": false,
          "internalType": "uint8",
          "name": "quality",
          "type": "uint8"
        },
        {
          "indexed": false,
          "internalType": "uint256",
          "name": "style",
          "type": "uint256"
        }
      ],
      "name": "Claimed",
      "type": "event"
    },
    {
      "anonymous": false,
      "inputs": [
        {
          "indexed": true,
          "internalType": "address",
          "name": "previousOwner",
          "type": "address"
        },
        {
          "indexed": true,
          "internalType": "address",
          "name": "newOwner",
          "type": "address"
        }
      ],
      "name": "OwnershipTransferred",
      "type": "event"
    },
    {
      "anonymous": false,
      "inputs": [
        {
          "indexed": true,
          "internalType": "address",
          "name": "from",
          "type": "address"
        },
        {
          "indexed": true,
          "internalType": "address",
          "name": "to",
          "type": "address"
        },
        {
          "indexed": true,
          "internalType": "uint256",
          "name": "tokenId",
          "type": "uint256"
        }
      ],
      "name": "Transfer",
      "type": "event"
    },
    {
      "inputs": [],
      "name": "CASSETTE_CREATION_LIMIT",
      "outputs": [
        {
          "internalType": "uint256",
          "name": "",
          "type": "uint256"
        }
      ],
      "stateMutability": "view",
      "type": "function"
    },
    {
      "inputs": [
        {
          "internalType": "uint256",
          "name": "index",
          "type": "uint256"
        }
      ],
      "name": "acceptBid",
      "outputs": [],
      "stateMutability": "nonpayable",
      "type": "function"
    },
    {
      "inputs": [],
      "name": "allCassettesClaimed",
      "outputs": [
        {
          "internalType": "bool",
          "name": "",
          "type": "bool"
        }
      ],
      "stateMutability": "view",
      "type": "function"
    },
    {
      "inputs": [
        {
          "internalType": "address",
          "name": "to",
          "type": "address"
        },
        {
          "internalType": "uint256",
          "name": "tokenId",
          "type": "uint256"
        }
      ],
      "name": "approve",
      "outputs": [],
      "stateMutability": "nonpayable",
      "type": "function"
    },
    {
      "inputs": [
        {
          "internalType": "address",
          "name": "owner",
          "type": "address"
        }
      ],
      "name": "balanceOf",
      "outputs": [
        {
          "internalType": "uint256",
          "name": "",
          "type": "uint256"
        }
      ],
      "stateMutability": "view",
      "type": "function"
    },
    {
      "inputs": [],
      "name": "baseURI",
      "outputs": [
        {
          "internalType": "string",
          "name": "",
          "type": "string"
        }
      ],
      "stateMutability": "view",
      "type": "function"
    },
    {
      "inputs": [
        {
          "internalType": "uint256",
          "name": "index",
          "type": "uint256"
        }
      ],
      "name": "bid",
      "outputs": [],
      "stateMutability": "payable",
      "type": "function"
    },
    {
      "inputs": [
        {
          "internalType": "uint256",
          "name": "",
          "type": "uint256"
        }
      ],
      "name": "cassetteBids",
      "outputs": [
        {
          "internalType": "bool",
          "name": "activeBid",
          "type": "bool"
        },
        {
          "internalType": "uint256",
          "name": "cassetteIndex",
          "type": "uint256"
        },
        {
          "internalType": "address",
          "name": "bidder",
          "type": "address"
        },
        {
          "internalType": "uint256",
          "name": "amount",
          "type": "uint256"
        }
      ],
      "stateMutability": "view",
      "type": "function"
    },
    {
      "inputs": [],
      "name": "cassettesCreatedCount",
      "outputs": [
        {
          "internalType": "uint256",
          "name": "",
          "type": "uint256"
        }
      ],
      "stateMutability": "view",
      "type": "function"
    },
    {
      "inputs": [
        {
          "internalType": "uint256",
          "name": "index",
          "type": "uint256"
        },
        {
          "internalType": "uint8",
          "name": "capacity",
          "type": "uint8"
        },
        {
          "internalType": "uint8",
          "name": "quality",
          "type": "uint8"
        },
        {
          "internalType": "uint256",
          "name": "style",
          "type": "uint256"
        },
        {
          "internalType": "bytes32[]",
          "name": "merkleProof",
          "type": "bytes32[]"
        },
        {
          "internalType": "string",
          "name": "tokenURI",
          "type": "string"
        }
      ],
      "name": "claim",
      "outputs": [],
      "stateMutability": "nonpayable",
      "type": "function"
    },
    {
      "inputs": [
        {
          "internalType": "uint256",
          "name": "mixtapeId",
          "type": "uint256"
        },
        {
          "internalType": "string",
          "name": "tokenURI",
          "type": "string"
        }
      ],
      "name": "editMixtape",
      "outputs": [],
      "stateMutability": "nonpayable",
      "type": "function"
    },
    {
      "inputs": [
        {
          "internalType": "uint256",
          "name": "tokenId",
          "type": "uint256"
        }
      ],
      "name": "getApproved",
      "outputs": [
        {
          "internalType": "address",
          "name": "",
          "type": "address"
        }
      ],
      "stateMutability": "view",
      "type": "function"
    },
    {
      "inputs": [
        {
          "internalType": "address",
          "name": "owner",
          "type": "address"
        },
        {
          "internalType": "address",
          "name": "operator",
          "type": "address"
        }
      ],
      "name": "isApprovedForAll",
      "outputs": [
        {
          "internalType": "bool",
          "name": "",
          "type": "bool"
        }
      ],
      "stateMutability": "view",
      "type": "function"
    },
    {
      "inputs": [
        {
          "internalType": "uint256",
          "name": "index",
          "type": "uint256"
        }
      ],
      "name": "isClaimed",
      "outputs": [
        {
          "internalType": "bool",
          "name": "",
          "type": "bool"
        }
      ],
      "stateMutability": "view",
      "type": "function"
    },
    {
      "inputs": [],
      "name": "merkleRoot",
      "outputs": [
        {
          "internalType": "bytes32",
          "name": "",
          "type": "bytes32"
        }
      ],
      "stateMutability": "view",
      "type": "function"
    },
    {
      "inputs": [
        {
          "internalType": "uint256",
          "name": "",
          "type": "uint256"
        }
      ],
      "name": "mixes",
      "outputs": [
        {
          "internalType": "uint8",
          "name": "capacity",
          "type": "uint8"
        },
        {
          "internalType": "uint8",
          "name": "quality",
          "type": "uint8"
        },
        {
          "internalType": "uint256",
          "name": "style",
          "type": "uint256"
        }
      ],
      "stateMutability": "view",
      "type": "function"
    },
    {
      "inputs": [],
      "name": "name",
      "outputs": [
        {
          "internalType": "string",
          "name": "",
          "type": "string"
        }
      ],
      "stateMutability": "view",
      "type": "function"
    },
    {
      "inputs": [],
      "name": "owner",
      "outputs": [
        {
          "internalType": "address",
          "name": "",
          "type": "address"
        }
      ],
      "stateMutability": "view",
      "type": "function"
    },
    {
      "inputs": [
        {
          "internalType": "uint256",
          "name": "tokenId",
          "type": "uint256"
        }
      ],
      "name": "ownerOf",
      "outputs": [
        {
          "internalType": "address",
          "name": "",
          "type": "address"
        }
      ],
      "stateMutability": "view",
      "type": "function"
    },
    {
      "inputs": [],
      "name": "renounceOwnership",
      "outputs": [],
      "stateMutability": "nonpayable",
      "type": "function"
    },
    {
      "inputs": [
        {
          "internalType": "address",
          "name": "from",
          "type": "address"
        },
        {
          "internalType": "address",
          "name": "to",
          "type": "address"
        },
        {
          "internalType": "uint256",
          "name": "tokenId",
          "type": "uint256"
        }
      ],
      "name": "safeTransferFrom",
      "outputs": [],
      "stateMutability": "nonpayable",
      "type": "function"
    },
    {
      "inputs": [
        {
          "internalType": "address",
          "name": "from",
          "type": "address"
        },
        {
          "internalType": "address",
          "name": "to",
          "type": "address"
        },
        {
          "internalType": "uint256",
          "name": "tokenId",
          "type": "uint256"
        },
        {
          "internalType": "bytes",
          "name": "_data",
          "type": "bytes"
        }
      ],
      "name": "safeTransferFrom",
      "outputs": [],
      "stateMutability": "nonpayable",
      "type": "function"
    },
    {
      "inputs": [
        {
          "internalType": "address",
          "name": "operator",
          "type": "address"
        },
        {
          "internalType": "bool",
          "name": "approved",
          "type": "bool"
        }
      ],
      "name": "setApprovalForAll",
      "outputs": [],
      "stateMutability": "nonpayable",
      "type": "function"
    },
    {
      "inputs": [
        {
          "internalType": "bytes4",
          "name": "interfaceId",
          "type": "bytes4"
        }
      ],
      "name": "supportsInterface",
      "outputs": [
        {
          "internalType": "bool",
          "name": "",
          "type": "bool"
        }
      ],
      "stateMutability": "view",
      "type": "function"
    },
    {
      "inputs": [],
      "name": "symbol",
      "outputs": [
        {
          "internalType": "string",
          "name": "",
          "type": "string"
        }
      ],
      "stateMutability": "view",
      "type": "function"
    },
    {
      "inputs": [
        {
          "internalType": "uint256",
          "name": "index",
          "type": "uint256"
        }
      ],
      "name": "tokenByIndex",
      "outputs": [
        {
          "internalType": "uint256",
          "name": "",
          "type": "uint256"
        }
      ],
      "stateMutability": "view",
      "type": "function"
    },
    {
      "inputs": [
        {
          "internalType": "address",
          "name": "owner",
          "type": "address"
        },
        {
          "internalType": "uint256",
          "name": "index",
          "type": "uint256"
        }
      ],
      "name": "tokenOfOwnerByIndex",
      "outputs": [
        {
          "internalType": "uint256",
          "name": "",
          "type": "uint256"
        }
      ],
      "stateMutability": "view",
      "type": "function"
    },
    {
      "inputs": [
        {
          "internalType": "uint256",
          "name": "tokenId",
          "type": "uint256"
        }
      ],
      "name": "tokenURI",
      "outputs": [
        {
          "internalType": "string",
          "name": "",
          "type": "string"
        }
      ],
      "stateMutability": "view",
      "type": "function"
    },
    {
      "inputs": [],
      "name": "totalSupply",
      "outputs": [
        {
          "internalType": "uint256",
          "name": "",
          "type": "uint256"
        }
      ],
      "stateMutability": "view",
      "type": "function"
    },
    {
      "inputs": [
        {
          "internalType": "address",
          "name": "from",
          "type": "address"
        },
        {
          "internalType": "address",
          "name": "to",
          "type": "address"
        },
        {
          "internalType": "uint256",
          "name": "tokenId",
          "type": "uint256"
        }
      ],
      "name": "transferFrom",
      "outputs": [],
      "stateMutability": "nonpayable",
      "type": "function"
    },
    {
      "inputs": [
        {
          "internalType": "address",
          "name": "newOwner",
          "type": "address"
        }
      ],
      "name": "transferOwnership",
      "outputs": [],
      "stateMutability": "nonpayable",
      "type": "function"
    }
  ],
  "bytecode": "0x60a06040526000600e60006101000a81548160ff0219169083151502179055503480156200002c57600080fd5b506040516200408d3803806200408d833981810160405260208110156200005257600080fd5b81019080805190602001909291905050506040518060400160405280600781526020017f4e465461706573000000000000000000000000000000000000000000000000008152506040518060400160405280600481526020017f5441504500000000000000000000000000000000000000000000000000000000815250620000e76301ffc9a760e01b6200022360201b60201c565b8160069080519060200190620000ff92919062000334565b5080600790805190602001906200011892919062000334565b50620001316380ac58cd60e01b6200022360201b60201c565b62000149635b5e139f60e01b6200022360201b60201c565b6200016163780e9d6360e01b6200022360201b60201c565b50506000620001756200032c60201b60201c565b905080600a60006101000a81548173ffffffffffffffffffffffffffffffffffffffff021916908373ffffffffffffffffffffffffffffffffffffffff1602179055508073ffffffffffffffffffffffffffffffffffffffff16600073ffffffffffffffffffffffffffffffffffffffff167f8be0079c531659141344cd1fd0a4f28419497f9722a3daafe3b4186f6b6457e060405160405180910390a350806080818152505050620003da565b63ffffffff60e01b817bffffffffffffffffffffffffffffffffffffffffffffffffffffffff19161415620002c0576040517f08c379a000000000000000000000000000000000000000000000000000000000815260040180806020018281038252601c8152602001807f4552433136353a20696e76616c696420696e746572666163652069640000000081525060200191505060405180910390fd5b6001600080837bffffffffffffffffffffffffffffffffffffffffffffffffffffffff19167bffffffffffffffffffffffffffffffffffffffffffffffffffffffff1916815260200190815260200160002060006101000a81548160ff02191690831515021790555050565b600033905090565b828054600181600116156101000203166002900490600052602060002090601f016020900481019282601f106200037757805160ff1916838001178555620003a8565b82800160010185558215620003a8579182015b82811115620003a75782518255916020019190600101906200038a565b5b509050620003b79190620003bb565b5090565b5b80821115620003d6576000816000905550600101620003bc565b5090565b608051613c93620003fa6000398061144452806117025250613c936000f3fe6080604052600436106101d85760003560e01c80636352211e11610102578063a22cb46511610095578063b88d4fde11610064578063b88d4fde14610c7f578063c87b56dd14610d91578063e985e9c514610e45578063f2fde38b14610ecc576101d8565b8063a22cb46514610b67578063a5bc2c9f14610bc4578063a651958e14610bf1578063b7dacf6614610c1c576101d8565b8063715018a6116100d1578063715018a614610a2e5780638da5cb5b14610a4557806395d89b4114610a865780639e34070f14610b16576101d8565b80636352211e146108585780636bcc5b8d146108bd5780636c0360eb1461093957806370a08231146109c9576101d8565b80632b1fd58a1161017a57806342842e0e1161014957806342842e0e14610615578063454a2ab3146106905780634f6ccce7146106be578063630d7a341461070d576101d8565b80632b1fd58a1461046e5780632cdae39b146104a95780632eb4a7ab1461057b5780632f745c59146105a6576101d8565b8063081812fc116101b6578063081812fc14610308578063095ea7b31461036d57806318160ddd146103c857806323b872dd146103f3576101d8565b806301ffc9a7146101dd578063033263e51461024d57806306fdde0314610278575b600080fd5b3480156101e957600080fd5b506102356004803603602081101561020057600080fd5b8101908080357bffffffffffffffffffffffffffffffffffffffffffffffffffffffff19169060200190929190505050610f1d565b60405180821515815260200191505060405180910390f35b34801561025957600080fd5b50610262610f84565b6040518082815260200191505060405180910390f35b34801561028457600080fd5b5061028d610f8a565b6040518080602001828103825283818151815260200191508051906020019080838360005b838110156102cd5780820151818401526020810190506102b2565b50505050905090810190601f1680156102fa5780820380516001836020036101000a031916815260200191505b509250505060405180910390f35b34801561031457600080fd5b506103416004803603602081101561032b57600080fd5b810190808035906020019092919050505061102c565b604051808273ffffffffffffffffffffffffffffffffffffffff16815260200191505060405180910390f35b34801561037957600080fd5b506103c66004803603604081101561039057600080fd5b81019080803573ffffffffffffffffffffffffffffffffffffffff169060200190929190803590602001909291905050506110c7565b005b3480156103d457600080fd5b506103dd61120b565b6040518082815260200191505060405180910390f35b3480156103ff57600080fd5b5061046c6004803603606081101561041657600080fd5b81019080803573ffffffffffffffffffffffffffffffffffffffff169060200190929190803573ffffffffffffffffffffffffffffffffffffffff1690602001909291908035906020019092919050505061121c565b005b34801561047a57600080fd5b506104a76004803603602081101561049157600080fd5b8101908080359060200190929190505050611292565b005b3480156104b557600080fd5b50610579600480360360408110156104cc57600080fd5b8101908080359060200190929190803590602001906401000000008111156104f357600080fd5b82018360208201111561050557600080fd5b8035906020019184600183028401116401000000008311171561052757600080fd5b91908080601f016020809104026020016040519081016040528093929190818152602001838380828437600081840152601f19601f820116905080830192505050505050509192919290505050611434565b005b34801561058757600080fd5b50610590611442565b6040518082815260200191505060405180910390f35b3480156105b257600080fd5b506105ff600480360360408110156105c957600080fd5b81019080803573ffffffffffffffffffffffffffffffffffffffff16906020019092919080359060200190929190505050611466565b6040518082815260200191505060405180910390f35b34801561062157600080fd5b5061068e6004803603606081101561063857600080fd5b81019080803573ffffffffffffffffffffffffffffffffffffffff169060200190929190803573ffffffffffffffffffffffffffffffffffffffff169060200190929190803590602001909291905050506114c1565b005b6106bc600480360360208110156106a657600080fd5b81019080803590602001909291905050506114e1565b005b3480156106ca57600080fd5b506106f7600480360360208110156106e157600080fd5b81019080803590602001909291905050506115bd565b6040518082815260200191505060405180910390f35b34801561071957600080fd5b50610856600480360360c081101561073057600080fd5b8101908080359060200190929190803560ff169060200190929190803560ff169060200190929190803590602001909291908035906020019064010000000081111561077b57600080fd5b82018360208201111561078d57600080fd5b803590602001918460208302840111640100000000831117156107af57600080fd5b9091929391929390803590602001906401000000008111156107d057600080fd5b8201836020820111156107e257600080fd5b8035906020019184600183028401116401000000008311171561080457600080fd5b91908080601f016020809104026020016040519081016040528093929190818152602001838380828437600081840152601f19601f8201169050808301925050505050505091929192905050506115e0565b005b34801561086457600080fd5b506108916004803603602081101561087b57600080fd5b81019080803590602001909291905050506118c1565b604051808273ffffffffffffffffffffffffffffffffffffffff16815260200191505060405180910390f35b3480156108c957600080fd5b506108f6600480360360208110156108e057600080fd5b81019080803590602001909291905050506118f8565b6040518085151581526020018481526020018373ffffffffffffffffffffffffffffffffffffffff16815260200182815260200194505050505060405180910390f35b34801561094557600080fd5b5061094e611955565b6040518080602001828103825283818151815260200191508051906020019080838360005b8381101561098e578082015181840152602081019050610973565b50505050905090810190601f1680156109bb5780820380516001836020036101000a031916815260200191505b509250505060405180910390f35b3480156109d557600080fd5b50610a18600480360360208110156109ec57600080fd5b81019080803573ffffffffffffffffffffffffffffffffffffffff1690602001909291905050506119f7565b6040518082815260200191505060405180910390f35b348015610a3a57600080fd5b50610a43611acc565b005b348015610a5157600080fd5b50610a5a611c3c565b604051808273ffffffffffffffffffffffffffffffffffffffff16815260200191505060405180910390f35b348015610a9257600080fd5b50610a9b611c66565b6040518080602001828103825283818151815260200191508051906020019080838360005b83811015610adb578082015181840152602081019050610ac0565b50505050905090810190601f168015610b085780820380516001836020036101000a031916815260200191505b509250505060405180910390f35b348015610b2257600080fd5b50610b4f60048036036020811015610b3957600080fd5b8101908080359060200190929190505050611d08565b60405180821515815260200191505060405180910390f35b348015610b7357600080fd5b50610bc260048036036040811015610b8a57600080fd5b81019080803573ffffffffffffffffffffffffffffffffffffffff169060200190929190803515159060200190929190505050611d5a565b005b348015610bd057600080fd5b50610bd9611f10565b60405180821515815260200191505060405180910390f35b348015610bfd57600080fd5b50610c06611f23565b6040518082815260200191505060405180910390f35b348015610c2857600080fd5b50610c5560048036036020811015610c3f57600080fd5b8101908080359060200190929190505050611f29565b604051808460ff1681526020018360ff168152602001828152602001935050505060405180910390f35b348015610c8b57600080fd5b50610d8f60048036036080811015610ca257600080fd5b81019080803573ffffffffffffffffffffffffffffffffffffffff169060200190929190803573ffffffffffffffffffffffffffffffffffffffff1690602001909291908035906020019092919080359060200190640100000000811115610d0957600080fd5b820183602082011115610d1b57600080fd5b80359060200191846001830284011164010000000083111715610d3d57600080fd5b91908080601f016020809104026020016040519081016040528093929190818152602001838380828437600081840152601f19601f820116905080830192505050505050509192919290505050611f7a565b005b348015610d9d57600080fd5b50610dca60048036036020811015610db457600080fd5b8101908080359060200190929190505050611ff2565b6040518080602001828103825283818151815260200191508051906020019080838360005b83811015610e0a578082015181840152602081019050610def565b50505050905090810190601f168015610e375780820380516001836020036101000a031916815260200191505b509250505060405180910390f35b348015610e5157600080fd5b50610eb460048036036040811015610e6857600080fd5b81019080803573ffffffffffffffffffffffffffffffffffffffff169060200190929190803573ffffffffffffffffffffffffffffffffffffffff1690602001909291905050506122c3565b60405180821515815260200191505060405180910390f35b348015610ed857600080fd5b50610f1b60048036036020811015610eef57600080fd5b81019080803573ffffffffffffffffffffffffffffffffffffffff169060200190929190505050612357565b005b6000806000837bffffffffffffffffffffffffffffffffffffffffffffffffffffffff19167bffffffffffffffffffffffffffffffffffffffffffffffffffffffff1916815260200190815260200160002060009054906101000a900460ff169050919050565b6103e881565b606060068054600181600116156101000203166002900480601f0160208091040260200160405190810160405280929190818152602001828054600181600116156101000203166002900480156110225780601f10610ff757610100808354040283529160200191611022565b820191906000526020600020905b81548152906001019060200180831161100557829003601f168201915b5050505050905090565b60006110378261254c565b61108c576040517f08c379a000000000000000000000000000000000000000000000000000000000815260040180806020018281038252602c815260200180613b5c602c913960400191505060405180910390fd5b6004600083815260200190815260200160002060009054906101000a900473ffffffffffffffffffffffffffffffffffffffff169050919050565b60006110d2826118c1565b90508073ffffffffffffffffffffffffffffffffffffffff168373ffffffffffffffffffffffffffffffffffffffff161415611159576040517f08c379a0000000000000000000000000000000000000000000000000000000008152600401808060200182810382526021815260200180613c0c6021913960400191505060405180910390fd5b8073ffffffffffffffffffffffffffffffffffffffff16611178612569565b73ffffffffffffffffffffffffffffffffffffffff1614806111a757506111a6816111a1612569565b6122c3565b5b6111fc576040517f08c379a0000000000000000000000000000000000000000000000000000000008152600401808060200182810382526038815260200180613aaf6038913960400191505060405180910390fd5b6112068383612571565b505050565b6000611217600261262a565b905090565b61122d611227612569565b8261263f565b611282576040517f08c379a0000000000000000000000000000000000000000000000000000000008152600401808060200182810382526031815260200180613c2d6031913960400191505060405180910390fd5b61128d838383612733565b505050565b3373ffffffffffffffffffffffffffffffffffffffff166112b2826118c1565b73ffffffffffffffffffffffffffffffffffffffff16146112d257600080fd5b6000601060008381526020019081526020016000209050611318338260020160009054906101000a900473ffffffffffffffffffffffffffffffffffffffff1684612733565b3373ffffffffffffffffffffffffffffffffffffffff166108fc82600301549081150290604051600060405180830381858888f19350505050158015611362573d6000803e3d6000fd5b506040518060800160405280600015158152602001838152602001600073ffffffffffffffffffffffffffffffffffffffff16815260200160008152506010600084815260200190815260200160002060008201518160000160006101000a81548160ff0219169083151502179055506020820151816001015560408201518160020160006101000a81548173ffffffffffffffffffffffffffffffffffffffff021916908373ffffffffffffffffffffffffffffffffffffffff160217905550606082015181600301559050505050565b61143e8282612976565b5050565b7f000000000000000000000000000000000000000000000000000000000000000081565b60006114b982600160008673ffffffffffffffffffffffffffffffffffffffff1673ffffffffffffffffffffffffffffffffffffffff168152602001908152602001600020612a0090919063ffffffff16565b905092915050565b6114dc83838360405180602001604052806000815250611f7a565b505050565b6103e881106114ef57600080fd5b60405180608001604052806001151581526020018281526020013373ffffffffffffffffffffffffffffffffffffffff168152602001348152506010600083815260200190815260200160002060008201518160000160006101000a81548160ff0219169083151502179055506020820151816001015560408201518160020160006101000a81548173ffffffffffffffffffffffffffffffffffffffff021916908373ffffffffffffffffffffffffffffffffffffffff1602179055506060820151816003015590505050565b6000806115d4836002612a1a90919063ffffffff16565b50905080915050919050565b6115e987611d08565b1561165c576040517f08c379a00000000000000000000000000000000000000000000000000000000081526004018080602001828103825260158152602001807f5461706520616c726561647920636c61696d65642e000000000000000000000081525060200191505060405180910390fd5b6103e8600c541061166c57600080fd5b600087878787604051602001808581526020018460ff1660f81b81526001018360ff1660f81b8152600101828152602001945050505050604051602081830303815290604052805190602001209050611727848480806020026020016040519081016040528093929190818152602001838360200280828437600081840152601f19601f820116905080830192505050505050507f000000000000000000000000000000000000000000000000000000000000000083612a46565b611799576040517f08c379a000000000000000000000000000000000000000000000000000000000815260040180806020018281038252600e8152602001807f496e76616c69642070726f6f662e00000000000000000000000000000000000081525060200191505060405180910390fd5b6117a288612afb565b600f60405180606001604052808960ff1681526020018860ff16815260200187815250908060018154018082558091505060019003906000526020600020906002020160009091909190915060008201518160000160006101000a81548160ff021916908360ff16021790555060208201518160000160016101000a81548160ff021916908360ff1602179055506040820151816001015550506118463389612b51565b6118508883612976565b600c600081548092919060010191905055507f6c0aadbf90daad59a1e28294a18cdfe6096e2f2de2c1acd92d4fb4bb5ddbf29588888888604051808581526020018460ff1681526020018360ff16815260200182815260200194505050505060405180910390a15050505050505050565b60006118f182604051806060016040528060298152602001613b11602991396002612d459092919063ffffffff16565b9050919050565b60106020528060005260406000206000915090508060000160009054906101000a900460ff16908060010154908060020160009054906101000a900473ffffffffffffffffffffffffffffffffffffffff16908060030154905084565b606060098054600181600116156101000203166002900480601f0160208091040260200160405190810160405280929190818152602001828054600181600116156101000203166002900480156119ed5780601f106119c2576101008083540402835291602001916119ed565b820191906000526020600020905b8154815290600101906020018083116119d057829003601f168201915b5050505050905090565b60008073ffffffffffffffffffffffffffffffffffffffff168273ffffffffffffffffffffffffffffffffffffffff161415611a7e576040517f08c379a000000000000000000000000000000000000000000000000000000000815260040180806020018281038252602a815260200180613ae7602a913960400191505060405180910390fd5b611ac5600160008473ffffffffffffffffffffffffffffffffffffffff1673ffffffffffffffffffffffffffffffffffffffff168152602001908152602001600020612d64565b9050919050565b611ad4612569565b73ffffffffffffffffffffffffffffffffffffffff16611af2611c3c565b73ffffffffffffffffffffffffffffffffffffffff1614611b7b576040517f08c379a00000000000000000000000000000000000000000000000000000000081526004018080602001828103825260208152602001807f4f776e61626c653a2063616c6c6572206973206e6f7420746865206f776e657281525060200191505060405180910390fd5b600073ffffffffffffffffffffffffffffffffffffffff16600a60009054906101000a900473ffffffffffffffffffffffffffffffffffffffff1673ffffffffffffffffffffffffffffffffffffffff167f8be0079c531659141344cd1fd0a4f28419497f9722a3daafe3b4186f6b6457e060405160405180910390a36000600a60006101000a81548173ffffffffffffffffffffffffffffffffffffffff021916908373ffffffffffffffffffffffffffffffffffffffff160217905550565b6000600a60009054906101000a900473ffffffffffffffffffffffffffffffffffffffff16905090565b606060078054600181600116156101000203166002900480601f016020809104026020016040519081016040528092919081815260200182805460018160011615610100020316600290048015611cfe5780601f10611cd357610100808354040283529160200191611cfe565b820191906000526020600020905b815481529060010190602001808311611ce157829003601f168201915b5050505050905090565b6000806101008381611d1657fe5b04905060006101008481611d2657fe5b0690506000600d60008481526020019081526020016000205490506000826001901b90508081831614945050505050919050565b611d62612569565b73ffffffffffffffffffffffffffffffffffffffff168273ffffffffffffffffffffffffffffffffffffffff161415611e03576040517f08c379a00000000000000000000000000000000000000000000000000000000081526004018080602001828103825260198152602001807f4552433732313a20617070726f766520746f2063616c6c65720000000000000081525060200191505060405180910390fd5b8060056000611e10612569565b73ffffffffffffffffffffffffffffffffffffffff1673ffffffffffffffffffffffffffffffffffffffff16815260200190815260200160002060008473ffffffffffffffffffffffffffffffffffffffff1673ffffffffffffffffffffffffffffffffffffffff16815260200190815260200160002060006101000a81548160ff0219169083151502179055508173ffffffffffffffffffffffffffffffffffffffff16611ebd612569565b73ffffffffffffffffffffffffffffffffffffffff167f17307eab39ab6107e8899845ad3d59bd9653f200f220920489ca2b5937696c318360405180821515815260200191505060405180910390a35050565b600e60009054906101000a900460ff1681565b600c5481565b600f8181548110611f3657fe5b90600052602060002090600202016000915090508060000160009054906101000a900460ff16908060000160019054906101000a900460ff16908060010154905083565b611f8b611f85612569565b8361263f565b611fe0576040517f08c379a0000000000000000000000000000000000000000000000000000000008152600401808060200182810382526031815260200180613c2d6031913960400191505060405180910390fd5b611fec84848484612d79565b50505050565b6060611ffd8261254c565b612052576040517f08c379a000000000000000000000000000000000000000000000000000000000815260040180806020018281038252602f815260200180613bdd602f913960400191505060405180910390fd5b6060600860008481526020019081526020016000208054600181600116156101000203166002900480601f0160208091040260200160405190810160405280929190818152602001828054600181600116156101000203166002900480156120fb5780601f106120d0576101008083540402835291602001916120fb565b820191906000526020600020905b8154815290600101906020018083116120de57829003601f168201915b50505050509050606061210c611955565b90506000815114156121225781925050506122be565b6000825111156121f35780826040516020018083805190602001908083835b602083106121645780518252602082019150602081019050602083039250612141565b6001836020036101000a03801982511681845116808217855250505050505090500182805190602001908083835b602083106121b55780518252602082019150602081019050602083039250612192565b6001836020036101000a03801982511681845116808217855250505050505090500192505050604051602081830303815290604052925050506122be565b806121fd85612deb565b6040516020018083805190602001908083835b602083106122335780518252602082019150602081019050602083039250612210565b6001836020036101000a03801982511681845116808217855250505050505090500182805190602001908083835b602083106122845780518252602082019150602081019050602083039250612261565b6001836020036101000a03801982511681845116808217855250505050505090500192505050604051602081830303815290604052925050505b919050565b6000600560008473ffffffffffffffffffffffffffffffffffffffff1673ffffffffffffffffffffffffffffffffffffffff16815260200190815260200160002060008373ffffffffffffffffffffffffffffffffffffffff1673ffffffffffffffffffffffffffffffffffffffff16815260200190815260200160002060009054906101000a900460ff16905092915050565b61235f612569565b73ffffffffffffffffffffffffffffffffffffffff1661237d611c3c565b73ffffffffffffffffffffffffffffffffffffffff1614612406576040517f08c379a00000000000000000000000000000000000000000000000000000000081526004018080602001828103825260208152602001807f4f776e61626c653a2063616c6c6572206973206e6f7420746865206f776e657281525060200191505060405180910390fd5b600073ffffffffffffffffffffffffffffffffffffffff168173ffffffffffffffffffffffffffffffffffffffff16141561248c576040517f08c379a0000000000000000000000000000000000000000000000000000000008152600401808060200182810382526026815260200180613a136026913960400191505060405180910390fd5b8073ffffffffffffffffffffffffffffffffffffffff16600a60009054906101000a900473ffffffffffffffffffffffffffffffffffffffff1673ffffffffffffffffffffffffffffffffffffffff167f8be0079c531659141344cd1fd0a4f28419497f9722a3daafe3b4186f6b6457e060405160405180910390a380600a60006101000a81548173ffffffffffffffffffffffffffffffffffffffff021916908373ffffffffffffffffffffffffffffffffffffffff16021790555050565b6000612562826002612f3290919063ffffffff16565b9050919050565b600033905090565b816004600083815260200190815260200160002060006101000a81548173ffffffffffffffffffffffffffffffffffffffff021916908373ffffffffffffffffffffffffffffffffffffffff160217905550808273ffffffffffffffffffffffffffffffffffffffff166125e4836118c1565b73ffffffffffffffffffffffffffffffffffffffff167f8c5be1e5ebec7d5bd14f71427d1e84f3dd0314c0f7b2291e5b200ac8c7c3b92560405160405180910390a45050565b600061263882600001612f4c565b9050919050565b600061264a8261254c565b61269f576040517f08c379a000000000000000000000000000000000000000000000000000000000815260040180806020018281038252602c815260200180613a83602c913960400191505060405180910390fd5b60006126aa836118c1565b90508073ffffffffffffffffffffffffffffffffffffffff168473ffffffffffffffffffffffffffffffffffffffff16148061271957508373ffffffffffffffffffffffffffffffffffffffff166127018461102c565b73ffffffffffffffffffffffffffffffffffffffff16145b8061272a575061272981856122c3565b5b91505092915050565b8273ffffffffffffffffffffffffffffffffffffffff16612753826118c1565b73ffffffffffffffffffffffffffffffffffffffff16146127bf576040517f08c379a0000000000000000000000000000000000000000000000000000000008152600401808060200182810382526029815260200180613bb46029913960400191505060405180910390fd5b600073ffffffffffffffffffffffffffffffffffffffff168273ffffffffffffffffffffffffffffffffffffffff161415612845576040517f08c379a0000000000000000000000000000000000000000000000000000000008152600401808060200182810382526024815260200180613a396024913960400191505060405180910390fd5b612850838383612f5d565b61285b600082612571565b6128ac81600160008673ffffffffffffffffffffffffffffffffffffffff1673ffffffffffffffffffffffffffffffffffffffff168152602001908152602001600020612f6290919063ffffffff16565b506128fe81600160008573ffffffffffffffffffffffffffffffffffffffff1673ffffffffffffffffffffffffffffffffffffffff168152602001908152602001600020612f7c90919063ffffffff16565b5061291581836002612f969092919063ffffffff16565b50808273ffffffffffffffffffffffffffffffffffffffff168473ffffffffffffffffffffffffffffffffffffffff167fddf252ad1be2c89b69c2b068fc378daa952ba7f163c4a11628f55a4df523b3ef60405160405180910390a4505050565b61297f8261254c565b6129d4576040517f08c379a000000000000000000000000000000000000000000000000000000000815260040180806020018281038252602c815260200180613b88602c913960400191505060405180910390fd5b806008600084815260200190815260200160002090805190602001906129fb929190613921565b505050565b6000612a0f8360000183612fcb565b60001c905092915050565b600080600080612a2d866000018661304e565b915091508160001c8160001c9350935050509250929050565b60008082905060005b8551811015612aed576000868281518110612a6657fe5b60200260200101519050808311612aad5782816040516020018083815260200182815260200192505050604051602081830303815290604052805190602001209250612adf565b808360405160200180838152602001828152602001925050506040516020818303038152906040528051906020012092505b508080600101915050612a4f565b508381149150509392505050565b60006101008281612b0857fe5b04905060006101008381612b1857fe5b069050806001901b600d60008481526020019081526020016000205417600d600084815260200190815260200160002081905550505050565b600073ffffffffffffffffffffffffffffffffffffffff168273ffffffffffffffffffffffffffffffffffffffff161415612bf4576040517f08c379a00000000000000000000000000000000000000000000000000000000081526004018080602001828103825260208152602001807f4552433732313a206d696e7420746f20746865207a65726f206164647265737381525060200191505060405180910390fd5b612bfd8161254c565b15612c70576040517f08c379a000000000000000000000000000000000000000000000000000000000815260040180806020018281038252601c8152602001807f4552433732313a20746f6b656e20616c7265616479206d696e7465640000000081525060200191505060405180910390fd5b612c7c60008383612f5d565b612ccd81600160008573ffffffffffffffffffffffffffffffffffffffff1673ffffffffffffffffffffffffffffffffffffffff168152602001908152602001600020612f7c90919063ffffffff16565b50612ce481836002612f969092919063ffffffff16565b50808273ffffffffffffffffffffffffffffffffffffffff16600073ffffffffffffffffffffffffffffffffffffffff167fddf252ad1be2c89b69c2b068fc378daa952ba7f163c4a11628f55a4df523b3ef60405160405180910390a45050565b6000612d58846000018460001b846130e7565b60001c90509392505050565b6000612d72826000016131dd565b9050919050565b612d84848484612733565b612d90848484846131ee565b612de5576040517f08c379a00000000000000000000000000000000000000000000000000000000081526004018080602001828103825260328152602001806139e16032913960400191505060405180910390fd5b50505050565b60606000821415612e33576040518060400160405280600181526020017f30000000000000000000000000000000000000000000000000000000000000008152509050612f2d565b600082905060005b60008214612e5d578080600101915050600a8281612e5557fe5b049150612e3b565b60608167ffffffffffffffff81118015612e7657600080fd5b506040519080825280601f01601f191660200182016040528015612ea95781602001600182028036833780820191505090505b50905060006001830390508593505b60008414612f2557600a8481612eca57fe5b0660300160f81b82828060019003935081518110612ee457fe5b60200101907effffffffffffffffffffffffffffffffffffffffffffffffffffffffffffff1916908160001a905350600a8481612f1d57fe5b049350612eb8565b819450505050505b919050565b6000612f44836000018360001b613407565b905092915050565b600081600001805490509050919050565b505050565b6000612f74836000018360001b61342a565b905092915050565b6000612f8e836000018360001b613512565b905092915050565b6000612fc2846000018460001b8473ffffffffffffffffffffffffffffffffffffffff1660001b613582565b90509392505050565b60008183600001805490501161302c576040517f08c379a00000000000000000000000000000000000000000000000000000000081526004018080602001828103825260228152602001806139bf6022913960400191505060405180910390fd5b82600001828154811061303b57fe5b9060005260206000200154905092915050565b600080828460000180549050116130b0576040517f08c379a0000000000000000000000000000000000000000000000000000000008152600401808060200182810382526022815260200180613b3a6022913960400191505060405180910390fd5b60008460000184815481106130c157fe5b906000526020600020906002020190508060000154816001015492509250509250929050565b600080846001016000858152602001908152602001600020549050600081141583906131ae576040517f08c379a00000000000000000000000000000000000000000000000000000000081526004018080602001828103825283818151815260200191508051906020019080838360005b83811015613173578082015181840152602081019050613158565b50505050905090810190601f1680156131a05780820380516001836020036101000a031916815260200191505b509250505060405180910390fd5b508460000160018203815481106131c157fe5b9060005260206000209060020201600101549150509392505050565b600081600001805490509050919050565b600061320f8473ffffffffffffffffffffffffffffffffffffffff1661365e565b61321c57600190506133ff565b606061338663150b7a0260e01b613231612569565b888787604051602401808573ffffffffffffffffffffffffffffffffffffffff1681526020018473ffffffffffffffffffffffffffffffffffffffff16815260200183815260200180602001828103825283818151815260200191508051906020019080838360005b838110156132b557808201518184015260208101905061329a565b50505050905090810190601f1680156132e25780820380516001836020036101000a031916815260200191505b5095505050505050604051602081830303815290604052907bffffffffffffffffffffffffffffffffffffffffffffffffffffffff19166020820180517bffffffffffffffffffffffffffffffffffffffffffffffffffffffff83818316178352505050506040518060600160405280603281526020016139e1603291398773ffffffffffffffffffffffffffffffffffffffff166136719092919063ffffffff16565b9050600081806020019051602081101561339f57600080fd5b8101908080519060200190929190505050905063150b7a0260e01b7bffffffffffffffffffffffffffffffffffffffffffffffffffffffff1916817bffffffffffffffffffffffffffffffffffffffffffffffffffffffff191614925050505b949350505050565b600080836001016000848152602001908152602001600020541415905092915050565b60008083600101600084815260200190815260200160002054905060008114613506576000600182039050600060018660000180549050039050600086600001828154811061347557fe5b906000526020600020015490508087600001848154811061349257fe5b90600052602060002001819055506001830187600101600083815260200190815260200160002081905550866000018054806134ca57fe5b6001900381819060005260206000200160009055905586600101600087815260200190815260200160002060009055600194505050505061350c565b60009150505b92915050565b600061351e8383613689565b61357757826000018290806001815401808255809150506001900390600052602060002001600090919091909150558260000180549050836001016000848152602001908152602001600020819055506001905061357c565b600090505b92915050565b600080846001016000858152602001908152602001600020549050600081141561362957846000016040518060400160405280868152602001858152509080600181540180825580915050600190039060005260206000209060020201600090919091909150600082015181600001556020820151816001015550508460000180549050856001016000868152602001908152602001600020819055506001915050613657565b8285600001600183038154811061363c57fe5b90600052602060002090600202016001018190555060009150505b9392505050565b600080823b905060008111915050919050565b606061368084846000856136ac565b90509392505050565b600080836001016000848152602001908152602001600020541415905092915050565b606082471015613707576040517f08c379a0000000000000000000000000000000000000000000000000000000008152600401808060200182810382526026815260200180613a5d6026913960400191505060405180910390fd5b6137108561365e565b613782576040517f08c379a000000000000000000000000000000000000000000000000000000000815260040180806020018281038252601d8152602001807f416464726573733a2063616c6c20746f206e6f6e2d636f6e747261637400000081525060200191505060405180910390fd5b600060608673ffffffffffffffffffffffffffffffffffffffff1685876040518082805190602001908083835b602083106137d257805182526020820191506020810190506020830392506137af565b6001836020036101000a03801982511681845116808217855250505050505090500191505060006040518083038185875af1925050503d8060008114613834576040519150601f19603f3d011682016040523d82523d6000602084013e613839565b606091505b5091509150613849828286613855565b92505050949350505050565b606083156138655782905061391a565b6000835111156138785782518084602001fd5b816040517f08c379a00000000000000000000000000000000000000000000000000000000081526004018080602001828103825283818151815260200191508051906020019080838360005b838110156138df5780820151818401526020810190506138c4565b50505050905090810190601f16801561390c5780820380516001836020036101000a031916815260200191505b509250505060405180910390fd5b9392505050565b828054600181600116156101000203166002900490600052602060002090601f016020900481019282601f1061396257805160ff1916838001178555613990565b82800160010185558215613990579182015b8281111561398f578251825591602001919060010190613974565b5b50905061399d91906139a1565b5090565b5b808211156139ba5760008160009055506001016139a2565b509056fe456e756d657261626c655365743a20696e646578206f7574206f6620626f756e64734552433732313a207472616e7366657220746f206e6f6e20455243373231526563656976657220696d706c656d656e7465724f776e61626c653a206e6577206f776e657220697320746865207a65726f20616464726573734552433732313a207472616e7366657220746f20746865207a65726f2061646472657373416464726573733a20696e73756666696369656e742062616c616e636520666f722063616c6c4552433732313a206f70657261746f7220717565727920666f72206e6f6e6578697374656e7420746f6b656e4552433732313a20617070726f76652063616c6c6572206973206e6f74206f776e6572206e6f7220617070726f76656420666f7220616c6c4552433732313a2062616c616e636520717565727920666f7220746865207a65726f20616464726573734552433732313a206f776e657220717565727920666f72206e6f6e6578697374656e7420746f6b656e456e756d657261626c654d61703a20696e646578206f7574206f6620626f756e64734552433732313a20617070726f76656420717565727920666f72206e6f6e6578697374656e7420746f6b656e4552433732314d657461646174613a2055524920736574206f66206e6f6e6578697374656e7420746f6b656e4552433732313a207472616e73666572206f6620746f6b656e2074686174206973206e6f74206f776e4552433732314d657461646174613a2055524920717565727920666f72206e6f6e6578697374656e7420746f6b656e4552433732313a20617070726f76616c20746f2063757272656e74206f776e65724552433732313a207472616e736665722063616c6c6572206973206e6f74206f776e6572206e6f7220617070726f766564a2646970667358221220cd7ebba18a5d0c4d0941a82eb354d3c78196aa3ed6437e1fccede0ddcbb7946f64736f6c63430007030033",
  "linkReferences": {},
  "deployedLinkReferences": {}
}