{
  "_format": "hh-sol-artifact-1",
  "contractName": "SubtapeFactoryCreator",
  "sourceName": "contracts/SubtapeFactoryCreator.sol",
  "abi": [
    {
      "inputs": [
        {
          "internalType": "address",
          "name": "_implementation",
          "type": "address"
        }
      ],
      "stateMutability": "nonpayable",
      "type": "constructor"
    },
    {
      "inputs": [
        {
          "internalType": "string",
          "name": "_name",
          "type": "string"
        },
        {
          "internalType": "string",
          "name": "_symbol",
          "type": "string"
        }
      ],
      "name": "createSubtapeFactory",
      "outputs": [
        {
          "internalType": "uint256",
          "name": "",
          "type": "uint256"
        }
      ],
      "stateMutability": "nonpayable",
      "type": "function"
    },
    {
      "inputs": [
        {
          "internalType": "uint256",
          "name": "factoryId",
          "type": "uint256"
        }
      ],
      "name": "getFactoryAtId",
      "outputs": [
        {
          "internalType": "contract SubtapeFactory",
          "name": "",
          "type": "address"
        }
      ],
      "stateMutability": "view",
      "type": "function"
    },
    {
      "inputs": [],
      "name": "implementation",
      "outputs": [
        {
          "internalType": "address",
          "name": "",
          "type": "address"
        }
      ],
      "stateMutability": "view",
      "type": "function"
    }
  ],
  "bytecode": "0x608060405234801561001057600080fd5b50604051610a28380380610a288339818101604052810190610032919061008e565b80600160006101000a81548173ffffffffffffffffffffffffffffffffffffffff021916908373ffffffffffffffffffffffffffffffffffffffff16021790555050610109565b600081519050610088816100f2565b92915050565b6000602082840312156100a4576100a36100ed565b5b60006100b284828501610079565b91505092915050565b60006100c6826100cd565b9050919050565b600073ffffffffffffffffffffffffffffffffffffffff82169050919050565b600080fd5b6100fb816100bb565b811461010657600080fd5b50565b610910806101186000396000f3fe608060405234801561001057600080fd5b50600436106100415760003560e01c80635c60da1b14610046578063776e278a14610064578063a88de40214610094575b600080fd5b61004e6100c4565b60405161005b9190610593565b60405180910390f35b61007e60048036038101906100799190610433565b6100ea565b60405161008b919061062e565b60405180910390f35b6100ae60048036038101906100a991906104ab565b6101d5565b6040516100bb91906105f3565b60405180910390f35b600160009054906101000a900473ffffffffffffffffffffffffffffffffffffffff1681565b6000806100f76000610233565b9050600061014f600160009054906101000a900473ffffffffffffffffffffffffffffffffffffffff16836040516020016101329190610578565b60405160208183030381529060405261014a9061071c565b610241565b90508073ffffffffffffffffffffffffffffffffffffffff1663906571473387876040518463ffffffff1660e01b815260040161018e939291906105ae565b600060405180830381600087803b1580156101a857600080fd5b505af11580156101bc573d6000803e3d6000fd5b505050506101ca6000610318565b819250505092915050565b600061022c600160009054906101000a900473ffffffffffffffffffffffffffffffffffffffff168360405160200161020e9190610578565b6040516020818303038152906040526102269061071c565b3061032e565b9050919050565b600081600001549050919050565b60006040517f3d602d80600a3d3981f3363d3d373d3d3d363d7300000000000000000000000081528360601b60148201527f5af43d82803e903d91602b57fd5bf300000000000000000000000000000000006028820152826037826000f5915050600073ffffffffffffffffffffffffffffffffffffffff168173ffffffffffffffffffffffffffffffffffffffff161415610312576040517f08c379a00000000000000000000000000000000000000000000000000000000081526004016103099061060e565b60405180910390fd5b92915050565b6001816000016000828254019250508190555050565b60006040517f3d602d80600a3d3981f3363d3d373d3d3d363d7300000000000000000000000081528460601b60148201527f5af43d82803e903d91602b57fd5bf3ff0000000000000000000000000000000060288201528260601b603882015283604c82015260378120606c820152605560378201209150509392505050565b60006103c16103bc8461066e565b610649565b9050828152602081018484840111156103dd576103dc61086d565b5b6103e88482856107a7565b509392505050565b600082601f83011261040557610404610868565b5b81356104158482602086016103ae565b91505092915050565b60008135905061042d816108c3565b92915050565b6000806040838503121561044a57610449610877565b5b600083013567ffffffffffffffff81111561046857610467610872565b5b610474858286016103f0565b925050602083013567ffffffffffffffff81111561049557610494610872565b5b6104a1858286016103f0565b9150509250929050565b6000602082840312156104c1576104c0610877565b5b60006104cf8482850161041e565b91505092915050565b6104e1816106d6565b82525050565b6104f081610783565b82525050565b6000610501826106ba565b61050b81856106c5565b935061051b8185602086016107b6565b6105248161087c565b840191505092915050565b600061053c6017836106c5565b91506105478261089a565b602082019050919050565b61055b81610712565b82525050565b61057261056d82610712565b61081a565b82525050565b60006105848284610561565b60208201915081905092915050565b60006020820190506105a860008301846104d8565b92915050565b60006060820190506105c360008301866104d8565b81810360208301526105d581856104f6565b905081810360408301526105e981846104f6565b9050949350505050565b600060208201905061060860008301846104e7565b92915050565b600060208201905081810360008301526106278161052f565b9050919050565b60006020820190506106436000830184610552565b92915050565b6000610653610664565b905061065f82826107e9565b919050565b6000604051905090565b600067ffffffffffffffff82111561068957610688610824565b5b6106928261087c565b9050602081019050919050565b6000819050602082019050919050565b600081519050919050565b600081519050919050565b600082825260208201905092915050565b60006106e1826106f2565b9050919050565b6000819050919050565b600073ffffffffffffffffffffffffffffffffffffffff82169050919050565b6000819050919050565b6000610727826106af565b826107318461069f565b905061073c81610853565b9250602082101561077c576107777fffffffffffffffffffffffffffffffffffffffffffffffffffffffffffffffff8360200360080261088d565b831692505b5050919050565b600061078e82610795565b9050919050565b60006107a0826106f2565b9050919050565b82818337600083830152505050565b60005b838110156107d45780820151818401526020810190506107b9565b838111156107e3576000848401525b50505050565b6107f28261087c565b810181811067ffffffffffffffff8211171561081157610810610824565b5b80604052505050565b6000819050919050565b7f4e487b7100000000000000000000000000000000000000000000000000000000600052604160045260246000fd5b600061085f82516106e8565b80915050919050565b600080fd5b600080fd5b600080fd5b600080fd5b6000601f19601f8301169050919050565b600082821b905092915050565b7f455243313136373a2063726561746532206661696c6564000000000000000000600082015250565b6108cc81610712565b81146108d757600080fd5b5056fea264697066735822122019c38736f2ed998417b07b5fd82717b03467e85b100200ad2e1e3d0f75bfebd664736f6c63430008060033",
  "linkReferences": {},
  "deployedLinkReferences": {}
}